:020000020000FC
:10000000027EED02766A11121341210271897E038C
:100010007F1122027342EE30E707C3E49FFFE49EA4
:10002000FE22220283DF013B02580F6002032002FE
:100030000D028001E0028001E00022001E0C0C0392
:100040000700015E029B0F40030360020D02800166
:10005000E0028001E0005100240C0C030900017B48
:1000600002D80F280303400208028001E002800149
:10007000E0007200190C0C030A00017702EE0F4039
:1000800003034801F4028001E0028001E0006A00FD
:100090000D0C0C030B0001B103520F380303400198
:1000A000FD028001E0028001E0004200160C0C031A
:1000B0000C00013502400F200A03300219028001B2
:1000C000F4028001F4004200030C0C030D00013B1C
:1000D00002BD0F6C02038401C102D0019002D00165
:1000E00090002800200C0C030300017B03520F48F2
:1000F0000203A801BE02D0019002D00190005C0072
:10010000270C0C03060001F102E90F4003048002F2
:100110009B034002700340027000D0001A0C0C03D5
:100120000E00016002330F48020400027103200236
:100130005803200258007100130C0C030F00017BC0
:10014000025B0F8004042002740320025803200283
:1001500058004900140C0C03100001E102D20F7882
:10016000060410029A0320025803200258003100AE
:10017000140C0C03110001D502EE0F5003042002F1
:10018000710320025803200258009100120C0C0346
:100190001200021903530F400304180277032002D0
:1001A0005803200258008900180C0C031300013674
:1001B00002580F700804400205035001E00350018B
:1001C000E0006100140C0C031400012A02550F50CA
:1001D00005042001F4035001E0035001E0005A003F
:1001E000090C0C031500015E02BC0F58030430011A
:1001F000F4035001E0035001E00061000D0C0C031A
:100200001600016902D00F5803044001F5035001A4
:10021000E0035001E00069000E0C0C0317000179A7
:1002200002EC0F5005044001F8035001E0035001B7
:10023000E0006A000D0C0C031800016702570F481C
:10024000070390025702D0024002D0024000510042
:100250000A0C0C031900017902570F8806052002C9
:100260007404000258040002580090000B0C0C03A8
:100270006700016303660FB00204F00198040003F5
:100280000004000300002900110C0C031A0001E413
:1002900002580F88060540032604000300040003EB
:1002A000000091001A0C0C031B00023502BD0F88E0
:1002B000060530032604000300040003000081004B
:1002C0001A0C0C031C00024102D00F7003055003EE
:1002D0002104000300040003000097001A0C0C0323
:1002E0001D00025802EE0F600305200320040003E6
:1002F000000400030000A000190C0C031E000263A0
:1003000002F80F60030550032304000300040003F8
:1003100000009D001C0C0C03680002AF03520F602C
:100320000305600328040003000400030000BF006D
:10033000210C0C031F00021C02580F600305C803A8
:1003400084048003600480036000A000190C0C0387
:100350006900027F02BC0F600305C803900480039C
:10036000600480036000B700290C0C03230002A383
:1003700002EE0F80030640038404800360048003C0
:100380006000EF001D0C0C0324000303034F0F78E3
:10039000040610038E048003600480036000B6002E
:1003A000240C0C03250002AF02EF0F800305B003FD
:1003B000930480036604800366008000240C0C0311
:1003C0002600026A02940F800405E003A90480035A
:1003D000840480038400B0001C0C0C03270002CDB1
:1003E00002F90F600805C003AF0480038404800392
:1003F0008400BF001E0C0C03280001C202580F2805
:1004000005067202EE050002D0050002D000CC0005
:10041000110C0C032200023502EC0F800506A0022D
:10042000F3050002D0050002D000C000180C0C0338
:100430002A0001DA02580F200705A0031605000361
:100440000005000300004000090C0C032B0001DE36
:1004500002570280070680031E0500030005000303
:100460000000B100110C0C032C00023502BD0F80FE
:100470000706A00326050003000500030000C500D1
:10048000190C0C036A00024102D10F800706A00379
:1004900020050003000500030000C5001A0C0C0332
:1004A0006B00025B02ED0F800706A0032505000329
:1004B000000500030000C000180C0C032F0002AE62
:1004C00003500F880706B003290500030005000349
:1004D0000000C8001C0C0C03200001ED02570F2087
:1004E0000605A00337050003200500032000410096
:1004F0000B0C0C03300001ED02570F200606900391
:100500003F050003200500032000B900150C0C0373
:100510003100020802710F480306A00341050003E1
:10052000200500032000C1001A0C0C033200025900
:1005300002D00F880306B003420500032005000324
:100540002000C8001B0C0C033300027502EE0F8064
:100550000606A00346050003200500032000C00096
:100560001A0C0C03340002CC03510F880606B003AA
:100570004B050003200500032000C8001F0C0C03DE
:100580003500025802580F7003070803E8050003FE
:10059000C0050003C0012700210C0C03360002EE49
:1005A00002EE0F9003069003E8050003C005000368
:1005B000C000E000240C0C036E00035B03520FA08C
:1005C0000306C003F3050003C0050003C000CD000F
:1005D0002C0C0C033700028002580F70030698049D
:1005E0002A050004000500040000E700230C0C03AA
:1005F000380002CD02A00F70030660042B05000432
:10060000000500040000CF001E0C0C036C0002ED7E
:1006100002BB0FA00406A00430050004000500047E
:100620000000CE00270C0C03390002E802BC0F705A
:1006300005068E0428050004000500040000C6001D
:100640001F0C0C033A00030B02D00F880506C004F0
:100650003A050004000500040000CE00310C0C0334
:100660003B00032002EE0F64140698042A050004E0
:10067000000500040000E600230C0C033C00032CE2
:1006800002FA0F40080680042A0500040005000451
:10069000000110001D0C0C033D00039003520FA03D
:1006A0000306C00430050004000500040000CD006E
:1006B000290C0C033E0001DD02560F8F03070003D7
:1006C0001E055603000556030000C600150C0C035A
:1006D0002E00028702570F200607300438069004C8
:1006E0001A0690041A003F00120C0C034000028D01
:1006F00002580FB00608C004410690041A06900480
:100700001A0107001B0C0C034200033702ED0FB067
:100710000608E0044B0690041A0690041A0117001C
:10072000250C0C034400022B02570F200606400341
:100730009E05A0038405A003840040000E0C0C035A
:100740004600022F02570F9806077003A605A00364
:100750008405A0038400D800160C0C03480002C2D4
:1007600002EE0F9806079003AE05A0038405A003D0
:100770008400E8001E0C0C032900022B02580F20F5
:100780000506E0039E0640038406400384003F0004
:100790000F0C0C034700026902570F200606E00405
:1007A00005064003E8064003E8003F00110C0C0377
:1007B0004900026E02570FA8060850040E064003B7
:1007C000E8064003E800F7001A0C0C034A00031087
:1007D00002EC0FA80608700417064003E806400361
:1007E000E8010500230C0C034B0002E402570F2024
:1007F0000406E004D3064004B0064004B0003E0006
:100800001A0C0C034C0002EE02580FC004087004CE
:10081000E2064004B0064004B0011D002B0C0C039E
:100820004E00032D028A0FC003087004E206400444
:10083000B0064004B0011C002B0C0C034F00036BEE
:1008400002BC0FC003087004E2064004B006400476
:10085000B0011C002B0C0C03500003AA02EE0FC0C9
:1008600003087004E2064004B0064004B0011C0016
:100870002B0C0C035100031B02570FA8070870052F
:100880002F0640050006400500010500220C0C0360
:100890005200029A02570F200508200457078004CF
:1008A0003807800438004000130C0C03530002A0EA
:1008B00002580FC8050A1004600780043807800436
:1008C000380137001D0C0C03540002A302580F2CF2
:1008D0000508980465078004380780043800820002
:1008E000210C0C035700026601F40F2006082004B7
:1008F000CD078004B0078004B0003E00110C0C034B
:10090000550002E402580F2006082004D307800493
:10091000B0078004B0003D00170C0C034D0002EA44
:1009200002570FC8060A2004DD078004B0078004C0
:10093000B0013E00210C0C035600013B02580F3E53
:1009400009035A020D02D001E002D001E0002E009E
:100950001B0C0C030800013901F40F400503600271
:100960007102D0024002D00240003600240C0C0379
:100970005800016802580F40050390025802D00247
:100980004002D002400063000F0C0C036D000177A1
:1009900001F40F280507BC02EE050002D005000295
:1009A000D000CD00110C0C035900023301F40F2CC0
:1009B000050A500465078004380780043800850064
:1009C000230C0C035A00009D02580F3E02035A01EB
:1009D0000602D001E002D001E0002C000C0C0C0358
:1009E0005B00009D02580F7C0206B4010605A001C1
:1009F000E005A001E00058000C0C0C035C00009D19
:100A000002580FF8020D6801060B4001E00B40018F
:100A1000E000B0000C0C0C035D00015202580F2CDA
:100A200002089802320780043807800438008500E5
:100A30000C0C0C035E00009D01F40F3F01036001EC
:100A40003802D0024002D00240003800100C0C03E3
:100A50005F00009D01F40F7E0106C0013805A00271
:100A60004005A00240007000100C0C036000009DC7
:100A700001F40FFC010D8001380B4002400B4002D5
:100A80004000E000100C0C036100014202030FA8BB
:100A900016090002710780043807800438008400BA
:100AA0000C0C0C036200011901F40F2C020A500215
:100AB0003207800438078004380084000C0C0C03D3
:100AC000630002BD02570F200308A004A108000420
:100AD0008008000480003E00160C0C03640002CC69
:100AE00002580FD8030AC004AB08000480080004B1
:100AF00080015200200C0C036500017902580F8020
:100B000005069802740500025805000258005100BD
:100B1000140C0C036600FFFFFFFFFFFFFFFFFFFF4A
:100B2000FFFFFFFFFFFFFFFFFFFFFFFFFFFFFFFFD5
:100B3000FFFF908154E090A0D6F0908150E090A00B
:100B4000D5F0908188E090A0D9F09081D0E090A07D
:100B5000D0F0E490A0D7F090A0D7E0FFC39403506A
:100B600037EF25E0049081D0F07A8179D1121ADC38
:100B700090A0D1E0FFC394065019A31219C41252D9
:100B800045FE121A14EEF0E41252AD90A0D3121BDF
:100B9000A780DD121C5D80BF9081D0740DF0E490C1
:100BA0008154F0908020E020E203020D359080F522
:100BB000E090A0D8F012CEF3121C4FC39402400371
:100BC000020C76121B5412CD9990A0E2EEF0A3EF26
:100BD000F0E4FFFE12CE887F057E0012C381121B57
:100BE000B412BB07121B781289831218C91212DCC7
:100BF00012BB07C006C007121BBB12BB07AC06AD79
:100C000007D007D0061212BB402E74FFFFFE12124F
:100C1000647B017A8179DE12BB07C006C007121B14
:100C2000BB12BB07AC06AD07D007D0061212BB4003
:100C3000077F017E0012126490A0E2E0FEA3E0FFB5
:100C400012C3811218C91212DC12BB07C006C007FA
:100C5000121BBB12BB07AC06AD07D007D0061212A1
:100C6000CF9401EE648094805003020D2D90816E2C
:100C70007447F0020D2D121B54121BB412BB071245
:100C80001B78128983121C6412BB07C006C0077B45
:100C9000017A80792E12BB07AC06AD07D007D006CB
:100CA0001212CF9400EE648094804037908020E050
:100CB00030E637E054BFF0121C6412895190A0E274
:100CC000121A647A80792E128951AC06AD07121C73
:100CD000641289837A80792E90A0E2121AF0128928
:100CE000838007908020E04440F01218C912C1149C
:100CF0007B017A8179DE12BB07C006C007121BBBDD
:100D000012BB07AC06AD07D007D006C3ED9FFFECC2
:100D10009EFE120016D3EF9401EE64809480400D85
:100D200090816EE04440F01218C912C11490A0D80E
:100D3000E09080F5F0121C6B12895190A0DAEEF071
:100D4000A3EFF090A0DA121A0812898390A0D5E0E0
:100D50004420908150F0121B1F12BB0790A0F0EEB0
:100D6000F0A3EFF01212907B017A817984128951FD
:100D700090A0E2EEF0A3EFF07A83794190A0E21226
:100D800012A990A0DA1218B1121AABC004C005C0A3
:100D900006C00790A0E212186DD007D006D005D08B
:100DA00004124E7190A0DA602340211218B1121A79
:100DB000ABC004C005C006C00790A0E21218B1D0B5
:100DC00003D002D001D000124BD680271218B17B7D
:100DD000CD7ACC79CC783D124CCBC004C005C0068E
:100DE000C00790A0E21218B1D003D002D001D00009
:100DF000124BDA121BFD12185CFFE4124EDEC00427
:100E0000C005C006C00790A0EC121A33124EE3D002
:100E100003D002D001D000124CCBC004C005C006E4
:100E2000C00790A0DA12186DD007D006D005D00404
:100E3000124DD4C004C005C006C007121A301218E3
:100E400073D007D006D005D0041219D490A0F412A4
:100E50001859FFC004C005C006C00790A0F41218BE
:100E60005FFBAA06A905A804D007D006D005D004C8
:100E7000C3EF121BF112191812C2F590818674018A
:100E8000F09081887406F07F507E0012C114129B8E
:100E90004950030211C7E490A0F0F0A3F090A0E441
:100EA0001255FD0000000090A0E81255FD00000062
:100EB00000E490A0D7F09081887406F01219F9121E
:100EC00018E012C114121B1F12BB0790A0F1E02FF3
:100ED000F090A0F0E03EF0908020E090A0E430E2BE
:100EE0001B121893C000C001C002C00312A443D05B
:100EF00003D002D001D000121AB5801C121893C082
:100F000000C001C002C003121AF812B9CBD003D03E
:100F100002D001D000121BC290A0E41255F19081C2
:100F2000887402F090A0E8121893C000C001C002BB
:100F3000C003121AF812B9CBD003D002D001D000EE
:100F4000121BC290A0E81255F1121C5DE0C394047C
:100F50005003020EB690A0F1E02402FF90A0F0E052
:100F60003400FE7C007D04125348EEF0A3EFF090B5
:100F7000A0E412185F240212193C121B8690A0E410
:100F80001255F190A0E812185F240212193C121BAE
:100F90008690A0E81255F190A0DA12196790A0E8A7
:100FA00012185FFF1254E490A0DE121996121BCFA4
:100FB00012185FFF1254E490A0E0121996121BCF92
:100FC00012185FFF1254E490A0DCEEF0A3EFF07A69
:100FD00083794AA31212A97A83795790A0E0121953
:100FE000A5125E737BFF7A83796490A0DC1219A747
:100FF000125E7312129090A0DA1218B1121AABC0DE
:1010000004C005C006C00790A0DE12186DD007D03E
:1010100006D005D004124BD6121BFD90A0EC121A7C
:1010200033124EE3C004C005C006C00790A0DC1216
:1010300018B1D003D002D001D000124CCBC004C0F4
:1010400005C006C00790A0DA12186DD007D006D0F0
:1010500005D0041219D490A0E1E02FFF90A0E0E0A9
:101060003EAB07FA7D091218F440030210E0121992
:101070009D7D07121C721D12190340030210E0121D
:10108000199D7D05121C720D12190340030210E018
:101090007D031218F44002804712199DFF7C001254
:1010A00019014002803AC3E49FFFE49EFE12190634
:1010B000400590A0F2802A12199DFF7C007D03124A
:1010C00052E17D06125348C3E49FFFE49EFE1219CD
:1010D000064002800B12199DFF7C007D06125348CA
:1010E000A3EEF0A3EFF090A0E0121A9290A0F3E02C
:1010F0009FFF90A0F2E09E90A0EEF0A3EFF01218F8
:101100005CFFE4124EDEC004C005C006C00790A01C
:10111000EE121A33124EE3D003D002D001D00012E7
:101120004CCBC004C005C006C00790A0DC12186DEF
:10113000D007D006D005D004124DD4C004C005C0DD
:1011400006C007121A30121873D007D006D005D087
:10115000041219D490A0F41255F190A334121893EC
:1011600090A0F412185FFF121AB512191812199DE7
:10117000FF7C007D02125348ED4C604212185CFF68
:10118000E4124EDEC004C005C006C007121A3012B9
:101190001873D007D006D005D004124DD4C004C0B7
:1011A00005C006C007121B35124EE3D003D002D093
:1011B00001D000121912121C41121B3580031218A3
:1011C000BA12898312C2F590A0D6E0908154F090B3
:1011D0008186745FF090A0D5E0908150F0129B4919
:1011E000402A7F507E0012C114121B1F12BB0790B1
:1011F000A0F0EEF0A3EFF01218BA1289837BFF7A09
:1012000083797090A0F01219A7125E7312189F12C2
:10121000898390A0D9E0908188F0E490A0D7F090E5
:10122000A0D7E0FFC394035032EF25E0049081D0B3
:10123000F0121ADC90A0D1E0FFC394065018121AE5
:1012400014E0FF90A0D21219C4EF1252AD90A0D3B7
:10125000E4121BA780DE121C5D80C490A0D0E09039
:1012600081D0F02212CE887F057E0012C38190A328
:101270003DE0FEA3E0FBAA06E4F9F87F807E387D1E
:1012800001FC128525EF2401FFE43EFE12C1142269
:101290007BFF7A83793190A0F0E0FFA3E090A0FB80
:1012A000CFF0A3EFF0125E73227BFFE0FFA3E0908C
:1012B000A0FBCFF0A3EFF0125E7322C3ED9FFFEC13
:1012C0009EFE120016D3EF9401EE6480948022C338
:1012D000ED9FFFEC9EFE120016D3EF2212C1147B8D
:1012E000017A8179DE2290A0B4EEF0A3EFF0A3EDB5
:1012F000F0A3EBF01290609080F5E090A0D2F0E4C3
:101300009080F5F0908150E04420F07B017A807964
:101310003612895190A0C4121A647A8079321289E7
:101320005190A0BA121A647A8179B5128951EF24CA
:1013300001FFE43E90A0BC121C0920E203C380011F
:10134000D3920990A0B6121BDF1218761219CD1293
:101350001B8F90A0B6E0B4640C90A0CA1255FD3F5C
:10136000800000803690A0B81218B17B9A7A797903
:10137000067845124E71600C400A90A0B87408F0CF
:10138000A37467F090A0B81218B17B007A8079F44A
:101390007844124DD490A0CA1255F1121BDC1218D9
:1013A00076E4FFFE7DC87C42124DD490A0CE12554B
:1013B000F1121A4A121893121A55E4FFFE7DF57CB9
:1013C0004490A0CA121893121AFF90A0C2E0FCA386
:1013D000E0FDC3EC94084003021471121A6CC004BF
:1013E000C005C006C00790A0BE1218B1D003D0023D
:1013F000D001D000121947C004C005C006C0079034
:10140000A37112185FFFE4124EDE121876D007D0D7
:1014100006D005D004124DD4C004C005C006C007D4
:1014200090A0BA12186DD007D006D005D004124D86
:10143000D490A0C6121AD090A0C6121893121912F6
:1014400030090912185C121B981219187F807EF05F
:101450007DFA7C0290A334121893D312559A50113E
:1014600090A0C3E0240AF090A0C2E03400F0021380
:10147000CAD390A0C3E0940090A0C2E09408400CAE
:10148000A3E024F8F090A0C2E034FFF07F007EB427
:101490007DC47C0490A334121893D312559A500340
:1014A0000215777F007E807DF47C4490A0CA1218DC
:1014B00093121AFFFDAC061218727F007E507D4316
:1014C0007C49124DD4C004C005C006C00790A0BA24
:1014D0001218B1D003D002D001D000124CCBC004FE
:1014E000C005C006C00790A33B12186DD007D006F8
:1014F000D005D00412197B121A5B90A0BC121AC23C
:1015000078041255D2C006C00790A0BA121967D04D
:1015100007D00612193678041255AB121B4450201E
:1015200090A0BAE0FEA3E0FF7C037D1C1256BFC072
:1015300006C007121966D007D0061254E4121A5BCF
:10154000121A4A121893124CCBC004C005C006C030
:101550000790A0BE12186DD007D006D005D0041297
:101560004E7160134011121A4A121893121A551232
:10157000906012C69BC20A90A0BE121A08128983FC
:10158000121C6B7D007C0312898390A00BE0640722
:101590007004A3E06480702890A00DE064047004DF
:1015A000A3E06438701A908020E020E2047F00807D
:1015B000027F01EF600A1218AEE4FBFA79E0803393
:1015C00090A00BE064077004A3E06480702990A0F1
:1015D0000DE064047004A3E06438701B908020E088
:1015E00020E2047F0180027F00EF600B1218AEE45E
:1015F000FBFAF97840800B1218AE7BCD7ACC79CC0F
:10160000783D124BDAC004C005C006C00790A0BEEA
:101610001218B1D003D002D001D000121947C00473
:10162000C005C006C00790A37112185FFFE4124EF8
:10163000DE121876D007D006D005D004124DD4C0E3
:1016400004C005C006C00790A0BA12186DD007D01C
:1016500006D005D004124DD490A0C61255F1121830
:101660005CFF90A0D3121AD090A0C6121893121942
:10167000123009119081887410F012185C121B98B6
:101680001219188005E4908188F090A0C2E0FEA3B2
:10169000E0FF7B017AA079B4122A1712C2F590A05C
:1016A000D312185FFF1219187F0A7E0012C114129C
:1016B0009B49500302183C300908121B0E1219EA0C
:1016C0008035121B1F128951EE540F90A0B8F0A361
:1016D000EFF090A0C2121A9290A0B9E09FFF90A0E4
:1016E000B8E09EFE120016121C37500B90A0B8E016
:1016F000FFA3E0CF121B0612185C121C30FBFA7914
:10170000207841124CCBC004C005C006C00790A091
:10171000C212186DD007D006D005D004124DD4C027
:1017200004C005C006C00790A33D12186DD007D0B5
:1017300006D005D00412197B121B44500A90A0C099
:101740007403F0A3741CF07A81795B90A0C0121A24
:10175000F01289837B017A8179627D0C7C00128989
:1017600083121A4A121893124CCBC004C005C0064B
:10177000C00790A0BE12186DD007D006D005D004C7
:10178000124BD6E4FBFAF97840121C5679407841A6
:10179000121984121B8F7B017A81796F7D0C7C007A
:1017A000128983121C4190A0C3E02402FD90A0C2C4
:1017B000E03400FC12898390A0BEE064037002A3B1
:1017C000E06006121B0E1219EA90A0B6E0FCB464A9
:1017D00006A3E064646065E4124EE81218761219FC
:1017E000CD121B8F90A0B81218E8128983121C1218
:1017F00034FCC313FEEF132430FFE43EF0A3EFF0FC
:1018000090A0B812198A128983121BDC1218767DF7
:10181000961219CF90A0B8EE121B667A81797112D8
:101820008983121C1234FDC313FEEF13240CFFE452
:101830003EFE121B667A8179621289837B017A816E
:1018400079647D007C0312898390A0D2E09080F5BA
:10185000F0D20AA20A2290A0E01255F190A334E03F
:10186000FCA3E0FDA3E0FEA3E02290A0AEE0FCA379
:10187000E0FDE4124EE3A804A905AA06AB07221274
:101880004DD490A0E41255F190A0E47F007E1B7D22
:10189000377C4DE0F8A3E0F9A3E0FAA3E0FB229047
:1018A000A04A7B017A817964E0FCA3E0FD2290A04C
:1018B000C2E0FCA3E0FDE4024EE390A0F07B017ADD
:1018C00081795EE0FCA3E0FD2290A33DE0FEA3E071
:1018D000FBAA06E4F9F87F807E387D01FC1285259D
:1018E000EF2401FFE43EFE227B017A817975E0FC62
:1018F000A3E0FD2290A0F0E0FEA3E0FF7C001252E6
:10190000E17D06125348D3EB9FEE6480F8EA6480D1
:101910009822124CCB124F1C90A3340255F17B013C
:101920007A817971E0FCA3E0FD227B017A81795B09
:10193000E0FCA3E0FD221254E4EF2408FFE43EFEA5
:10194000E43DFDE43CFC22124CCB79807845E4FB7D
:10195000FA024CCB90A066E0FCA3E0FD2290A048E8
:10196000E0FCA3E0FD22A3E0FEA3E0FBAA06E4F96D
:10197000F82290A0B6E0FCA3E0FD22124DD4E4FBD7
:10198000FAF9783F124BDA024F1C7B017A817966B3
:10199000E0FCA3E0FD22AF03EAF0A3EFF090A0F09B
:1019A000E0FEA3E0227BFFE0FFA3E090A0FBCFF0EE
:1019B000A3EFF02278051255ABE4124EDE90A0E4BE
:1019C0002290A0F8E0FBA3E0FAA3E0F9227DC8E4AE
:1019D000FFFE7C47124DD4024F1C908150E0FF90D7
:1019E000A0ACE4F0A3EFF090A0ACA3E054DF9081B2
:1019F00050F02290A0F81255F190A33DE0FCA3E036
:101A0000FD7E277F100252F37B017A817964E0FC2E
:101A1000A3E0FD2290A0D7E075F006A424BEF582D5
:101A2000E434A0F583E5822FF582E43583F5832243
:101A300090A0F0E0FCA3E0FDEC2290A054E0FFA316
:101A4000E090A0B6CFF0A3EFF022E4FFFE7D407C53
:101A50004490A0CE22124CCB124F1C90A0BEEEF0B0
:101A6000A3EFF022EEF0A3EFF07B0122E4124EE3AD
:101A70007BCD7ACC79CC78BD024BDA7B0190A06625
:101A8000E0FEA3E0FF90A065E02FFD90A064E03EA3
:101A9000FC22E0FEA3E0FFC32290A0B4EEF0A3EF8F
:101AA000F090A05EE0FCA3E0FDD3227466783FFBDB
:101AB000FAF9024CCBEB2FFFEA3EFEE93DFDE83C94
:101AC000FC22E0FEA3E0FFA3E0FCA3E0FD0256BF82
:101AD0001255F17F007E1B7D377C4D2290A0D27481
:101AE00001F0A37481F0A374D1F0E490A0D1F022AE
:101AF0007B01E0FCA3E0FD227B017A81798922123F
:101B00004CCB124F1CEE90A0C2F0A3EFF0229081BC
:101B100050E0FF90A0B8E4F0A3EFF090A0B8227BD3
:101B2000017A8179822290A0C2E0FEA3E0FFAD039A
:101B3000AC020252F390A0F1E024FFFD90A0F0E08F
:101B400034FFFC2290A0C0EEF0A3EFF0C3941CEE93
:101B5000940322F090816E7407F0229FFFE09EC3F1
:101B600013FEEF13FF22F0FCA3EFF0FD7B0122EB4D
:101B7000F0A3EAF0A3E9F022EEC313FCEF13FD7B20
:101B8000017A81794E227B04E4FAF9F80254E49058
:101B9000A0B8EEF0A3EFF022FF78010255D2EE904C
:101BA000A0B2F0A3EFF02275F00112537E90A0D105
:101BB000E004F0227B017A81794C227B017A8179E1
:101BC000DC22EB2FFFEA3EFEE93DFDE83CFC22FB78
:101BD000AA06EA3395E0F9F890A0E42290A0B7E0D5
:101BE000FCE4024EE8E0FCA3E0FDC3EF9DFFEE9CA9
:101BF000229BFFEE9AFEED99FDEC98FC22124F1C01
:101C000090A0ECEEF0A3EFF022F0EFA3F090802094
:101C1000E02290A0B9E02400FF90A0B8E0227B0170
:101C2000E0FCA3E0FD22908101E0FE908065E022CF
:101C3000FFE4124EDEE422C3EF9405EE648094804C
:101C4000227B017A81795E227B017A80793222902F
:101C50008024E0540322124DD4E4FBFA2290A0D752
:101C6000E004F0227B017A807930227B017A81794D
:101C70007122FF7C000252E190A0AAEEF0A3EFF0E7
:101C8000908150E04420121B537B017A80793612F8
:101C9000895190A0B8121A647A80793212895190D1
:101CA000A0AEEEF0A3EFF0D3E0940090A0AEE094ED
:101CB00004400B90A0B8E094055003021E8012B6B9
:101CC0006E90A0B0EEF0EF121C0B20E204C209806F
:101CD00002D20990A04AE0FFA3E0CF121B9F121A84
:101CE0003A90A058E0FEA3E0FF121972C39FEC9E49
:101CF0004003021D87121A6CC004C005C006C0074D
:101D000090A0B21218B1D003D002D001D0001219A5
:101D100047C004C005C006C00790A37112185FFF3A
:101D2000E4124EDE121876D007D006D005D0041289
:101D30004DD4C004C005C006C00712186AD007D031
:101D400006D005D004124DD490A0BA1255F190A03F
:101D5000BA12188B12191230090912185C121B984A
:101D600012191890A04C12185FFF90A33412189308
:101D7000D312559A501190A0B7E02408F090A0B665
:101D8000E03400F0021CE190A058E0FEA3E0FFD395
:101D900090A0B7E09F90A0B6E09E400CA3E024F88E
:101DA000F090A0B6E034FFF090A05012185FFF90C2
:101DB000A334121893D312559A5003021E88121A94
:101DC0003A90A05012185F121C30FBFA79C8784282
:101DD000124DD4C004C005C006C00790A0B61218AA
:101DE0006DD007D006D005D004124DD4C004C00574
:101DF000C006C00790A0AE1218B1D003D002D00127
:101E0000D000124CCBC004C005C006C00790A33B55
:101E100012186DD007D006D005D00412197B121B02
:101E20009E90A0B0121AC278041255D2C006C00704
:101E300090A0AE121967D007D00612193678041296
:101E400055AB121A999FEC9E401C90A0AEE0FEA3E9
:101E5000E0FF1256BFC006C007121966D007D006B1
:101E60001254E4121B9E90A04AE0FEA3E0FFD39020
:101E7000A0B3E09F90A0B2E09E400DEEF0A3EFF083
:101E800012906012C69BC32290A0B21218A21289AF
:101E90008390A0B212191E12898390A0B61218B1B5
:101EA000121A70C004C005C006C00790A0B2121874
:101EB000B1D003D002D001D000121947C004C00530
:101EC000C006C00790A37112185FFFE4124EDE1225
:101ED0001876D007D006D005D004124DD4C004C067
:101EE00005C006C00712186AD007D006D005D00476
:101EF000124DD490A0BA121AD090A0BA1218931210
:101F000019123009119081887410F012185C121B9C
:101F1000981219188005E4908188F090A0AAE0FE3C
:101F2000A3E0FF7B017AA079B6122A1712C2F57FCF
:101F3000507E0012C1147BFF7A83791F125E737A80
:101F400083792290A0B61219A5125E73129B495094
:101F5000030220413009051219DA8030121B1F12CA
:101F60008951EE540F90A0ACF0A3EFF090A0B61200
:101F70001A9290A0ADE09FFF90A0ACE09EFE1200F0
:101F800016121C37500690A0AC121A3D12185CFFB6
:101F9000E4124EDE7920784112194EC004C005C00B
:101FA00006C00790A0B612186DD007D006D005D095
:101FB00004124DD4C004C005C006C00790A33D1252
:101FC000186DD007D006D005D00412197B121A99CB
:101FD0009FEC9E400890A0B4ECF0A3EDF090A0B46C
:101FE00012192A1289837A817962121A7B128983E3
:101FF00090A0B2121A9290A04BE090A04A121B5BE4
:1020000012195490A065E02DFD90A064E03CCD2F06
:10201000FFED3EFE90A0AC121B667A81796F1289AB
:1020200083121C4112197212898390A04AE0FEA308
:10203000E0FF90A0B2E06E7003A3E06F600312199E
:10204000DA12189F12898312414E129B49400312E3
:102050000B32D32212C98212385412CF3DEF6405DD
:10206000700302229474FF90A0B0F0A3F090A0B689
:102070001255FDFFFFFFFF12915B90A0ADEFF0C284
:1020800008E490A0AAF0129703F47003E493F470AC
:1020900003022258EF12971B1296DA12BF34500334
:1020A00002224F129728FC740193FD90A009E0FAD8
:1020B000A3E0FBD39DEA9C403275F01CEF1296D151
:1020C000C3EB9FFFEA9EFE120016D390A0B1E09FE3
:1020D00090A0B0E09E40141296CA1223F290A0B0D5
:1020E000EEF0A3EFF090A0AAE0A3F01223B790A027
:1020F000AAE0FD75F01CA4243DF582E5F03400F55E
:1021000083E493FBD3EF9B7480F86E984003022224
:102110004FED12975F1296DA1223E112974D243E8B
:10212000F582E5F03400F583E493FDD3EF9D7480F0
:10213000F86E98400302224F12CF3DBF021A129749
:102140004D242AF582E5F03400F583E493FF90A056
:1021500004E05F700302224F90A009E0FFA3E0902B
:10216000A0AECFF0A3EFF012CD66500D90A0AFE07F
:1021700025E0F090A0AEE033F0129728FC740193B4
:10218000FDD390A0AFE09D90A0AEE09C5003022252
:102190004FD208EF12975F1296DA1223E1C006C001
:1021A000071223B7D0E02FFFD0E03EFE3395E0FDCD
:1021B00012978412973EC000C001C002C00312965D
:1021C000CA1223F2EF7802C333CE33CED8F9FFEE32
:1021D0003395E0FDFCD003D002D001D000EB2FFFFF
:1021E000EA3EFEE93DFDE83C12978490A0ADE0FF99
:1021F00090A006E0C39FFFE49400FE120016EE33A9
:1022000095E0FDFCC004C005C006C007E47F64FE85
:10221000FDFC12973E125459D003D002D001D000D9
:10222000EF2BFFEE3AFEED39FDEC3812978490A0CB
:10223000B612978B12973EC312559A501290A0B2C5
:1022400012978BA31255F190A0AAE090A0ACF09049
:10225000A0AAE004F002208630081590A0ACE0FFB0
:1022600012985F12977D12979750030223B6801E33
:1022700090A0ABE0FF12985F90A02BE0FF74FFF0FE
:10228000A3EFF012977D12979750030223B612978F
:102290007D028C4A12B38290A00BEEF0A3EFF012F5
:1022A000B1FA90A00DEEF0A3EFF090A00BE0FFA329
:1022B000E090A00FCFF0A3EFF090A00DE0FFA3E01F
:1022C00090A011CFF0A3EFF0E4A3F0A3F0A304F0EB
:1022D000A374E0F090A013E0FFA3E090A01ACFF069
:1022E000A3EFF090A015E0FFA3E090A01CCFF0A317
:1022F000EFF090A02B74FFF0A3E4F090A0AAF012EE
:102300009703F47003E493F470030223B675F01C92
:10231000EFA42435F582E5F034001296DAC390A0DC
:102320000CE090A00B122403D3EF9405EE6480948C
:1023300080507A12974D2437F582E5F034001296DA
:10234000DAC390A00EE090A00D122403D3EF940600
:10235000EE64809480505612974D2426F582E5F065
:1023600034001296DAC390A001E090A00012240C71
:10237000503B12974D1297631296DAC390A003E078
:1023800090A00212240C502590A0AAE0FF75F01C2A
:102390001296E4129731FF74019390A00DCFF0A331
:1023A000EFF090A0AAE012971B12976C2290A0AABF
:1023B000E004F00222FF2290A0AAE075F01CA42401
:1023C00026F582E5F03400F583E493FE740193FF73
:1023D000C390A001E09FFF90A000E09EFE120016B7
:1023E00022C390A003E09FFF90A002E09EFE120097
:1023F0001622C390A00AE09FFF90A009E09EFE1263
:102400000016229FFFE09EFE120016229FFFE09E14
:10241000FE120016C3EF940AEE648094802290A00E
:102420008AE0600302252E12BDAABE020BBFD008AF
:102430009080F37436022740BE031CBF201990A081
:102440000DE0B40212A3E0B4580D12BD9C400890F8
:1024500080F3746C02274090A00BE0B4031FA3E04C
:10246000B4201AA3E0B40215A3E0B4581012BDCAF8
:1024700012BDA340089080F374FF02274012BDAA4A
:10248000B4001BEEB40417A3E0B40312A3E0B4003D
:102490000D12BD9C40089080F37486022740E4B57D
:1024A0000720EEB4041C90A00DE0B40315A3E0B423
:1024B000001012BDCA12BDA340089080F3745502EB
:1024C00026AB90A00BE0B40220A3E0B4801BA3E0F5
:1024D000B40116A3E0B4E011C312BDCB12BDA350EA
:1024E000089080F374340226F812BDAABE021ABF07
:1024F0008017A3E0B40112A3E0B4E00D12BD9C402C
:10250000089080F37486022740BE021FBF801C9093
:10251000A00DE0B40115A3E0B4E01012BDCA12BDD5
:10252000A340089080F374BF02274002274812BDE1
:10253000AABE0214BFD011A3E0B4020CA3E0B440C1
:10254000079080F3747B8027BE072CBF802990A062
:102550000DE0B40422A3E0B4381DC312BDC312BD04
:10256000A35014908020E030E20D9080F37403F0CB
:102570009080F4740DF02290A00BE0B40726A3E045
:10258000B48021A3E0B4041CA3E0B4381712BDC288
:1025900012BDA3400F908020E020E2089080F374E9
:1025A0009802274D12BDAABE0724BF8021A3E0B424
:1025B000041CA3E0B4381712BDC212BDA3500F9083
:1025C0008020E020E2089080F3740202274DE4B5F9
:1025D0000727EEB4052390A00DE0B4021CA3E0B4DD
:1025E000D01712BDC212BDA3400F908020E020E2A0
:1025F000089080F3749B02274D90A00BE0B4022654
:10260000A3E0B4D021A3E0B4011CA3E0B4E017120E
:10261000BDC212BDA3400F908020E020E208908050
:10262000F374650226F812BDAABE031FBF201CA3C7
:10263000E0B40217A3E0B4581212BDB3400D12BDAE
:10264000D250089080F374FF022740BE031CBF20C5
:102650001990A00DE0B40212A3E0B4580D12BD9C75
:1026600040089080F3747202274090A00BE0B402FF
:1026700017A3E0B4D012A3E0B4010DA3E0B4900816
:102680009080F374BF02274012BDAAB40025EEB4B7
:102690000421A3E0B4031CA3E0B4001712BDB340AF
:1026A0001212BDD2500D9080F37452F09080F474E9
:1026B00012F022E4B5071DEEB4041990A00DE0B4A9
:1026C0000312A3E0B4000D12BD9C40089080F37487
:1026D0008A02274090A00BE0B40225A3E0B480203A
:1026E000A3E0B4011BA3E0B4E016C312BDCB12BD3E
:1026F000A3500D9080F37436F09080F47410F022A3
:1027000012BDAABE021EBF801BA3E0B40116A3E047
:10271000B4E01112BDB3400C12BDD250079080F34B
:102720007481801CBE0221BF801E90A00DE0B40108
:1027300017A3E0B4E01212BD9C400D9080F37468C2
:10274000F09080F47413F0229080F374BFF09080C6
:10275000F4740FF0227BFF7A8879F112B57790F04C
:1027600024E054FEF09083357444F0908306E090AA
:10277000A0B1F0908310E090A0B2F0908311E090AF
:10278000A0B3F0908336E090A0B4F0908336E0548C
:10279000DF12B5AD740CF090833A7460122A0E907B
:1027A00081ADE020E0030229C39083117422F090F0
:1027B00083107413F0E490A0ADF090A0ADE0FFC3DF
:1027C000940340030229C3EF9088DC9390A0BAF0F1
:1027D000908330F0E490A0AEF090A0AEE0FF25E052
:1027E00024DFF582E43488F583E49390A0BBF0EF16
:1027F00025E024E0F582E43488F583E49390A0BCDE
:10280000F090A0BBE0908339F090A0BCE090833AB8
:10281000F0E490A0AFF090A0AFE0FF25E024E7F552
:1028200082E43488F583E49390A0BDF0EF25E024A2
:10283000E8F582E43488F583E49390A0BEF090A09C
:10284000BDE0908332F090A0BEE0908337F0E4903A
:10285000A0BFF074FFA3F0A3F0E490A0B0F090A0AC
:10286000B0E0FFC39403400302293074C22F12B5B5
:1028700069E4F0908306EFF0908309E04401F09062
:1028800083107413F01288FC90A0B8EEF0A3EFF060
:102890007F017E0012C114908310E020E3121288A1
:1028A000FC90A0B812B584C3EF941EEE940040E0F3
:1028B0009081ADE020E01112B55B12B59190A0AF10
:1028C000F090A0AEF0022927908308E054077051E1
:1028D00090A0B504F0A37483F0A37417F0E4FF9004
:1028E000A0B5E0FBA3E0FAA3E0F9125245FD90A0E9
:1028F000C1E02DF090A0C0E03400F090A0B5A3E4BA
:1029000075F001125394A9F0FA125245700C12B5E9
:1029100063E004F090A0BFE004F00FEFB405C080C6
:102920000612B55B12B59190A0B0E004F002285EEB
:1029300090A0CAE0FF90A0BFE0D39F401790A0C234
:10294000E0D39400400EA3E0D394004007A3E0D36B
:102950009400502390A0CBE0FEA3E0FFC390A0C161
:10296000E09F90A0C0E09E501190A0CDE06008A331
:10297000E06004A3E0700312B57190A0CDE0C394B1
:1029800001401DA3E094014017A3E09401401112FF
:10299000B57190A0AF74EEF090A0AEF090A0ADF045
:1029A00090A0AF12B5A5500302281690A0AEE00487
:1029B000F0E0C3940450030227D990A0ADE004F0E6
:1029C0000227BA90A0C6E0908339F090A0C7E090AB
:1029D000833AF090A0C5E0908330F090A0C8E090DA
:1029E0008332F090A0C9E0908337122A0E90A0B1F4
:1029F000E0908306F090A0B2E0908310F090A0B336
:102A0000E0908311F090A0B4E0908336F022F07F44
:102A1000017E0012C1142290A0D7EEF0A3EFF0A324
:102A2000121B6FC20B121C4812895190A0E8121A97
:102A3000647A81797112895190A0EAEEF0A3EFF0E7
:102A400090A0EA121A9290A0E9E09F90A0E8E09E80
:102A50005003022CBC121C4F94024003022B5890CE
:102A6000A0D8E024CEFD90A0D7E034FFFCE4124EC5
:102A7000E312194AC004C005C006C00790A3711232
:102A8000185FFFE4124EDE121876D007D006D0058C
:102A9000D00412187F124CCB124F1C90A0DC1255A0
:102AA000F190A0D8E02432FD90A0D7E03400FCE4FF
:102AB000124EE312194AC004C005C006C00790A315
:102AC0007112185FFFE4124EDE121876D007D0069E
:102AD000D005D00412187F124CCB124F1C1218567E
:102AE000241012193C1219B41255F190A0DC1218DE
:102AF0005FFF1219B9121893124BD6C004C005C05B
:102B000006C00712185CFFE4124EDE121876D007DA
:102B1000D006D005D004124E7160025003022BFD86
:102B200090A0E012185FFF1219B9121893124BDA35
:102B3000C004C005C006C00712185CFFE4124EDED8
:102B4000121876D007D006D005D004124E7140037B
:102B5000022BFDD20B022BFD7B017A86793A12897A
:102B600051EE541FFEE4FCFD90A0E01255F190A33D
:102B70003BE0FEA3E0FFE4FCFD90A0E012189312FE
:102B80005459E47B64FAF9F8125459121856241077
:102B900012193C1219B41255F190A0E012185FFFFF
:102BA0001219B9121893124BD6C004C005C006C042
:102BB0000712185CFFE4124EDE121876D007D0061A
:102BC000D005D004124E716034403290A0E012184B
:102BD0005FFF1219B9121893124BDAC004C005C076
:102BE00006C00712185CFFE4124EDE121876D007FA
:102BF000D006D005D004124E715002D20B200B0328
:102C0000022CBC90A0E012185FFFE4124EDE7B5253
:102C10007A497985783F12191290A05012185FFFF7
:102C200090A334121893D312559A400A90A05012D0
:102C3000185FFF121918908020E090A33430E20B47
:102C400012185FFF78011255AB800412185FFF1253
:102C500019B91255F190A37112185FFF1219B91228
:102C60001893124CCBC004C005C006C00790A0E862
:102C70001218B1D003D002D001D000124CCBC00446
:102C8000C005C006C00790A0EA12186DD007D00694
:102C9000D005D004121C5679807845124DD47B00A3
:102CA0007A1B7937784B121C56798078411219D4E7
:102CB00090A0D91219C4EE8FF012540D2290A0BD2D
:102CC0001255F190A0BDE0FCA3E0FDA3E0FEA3E05F
:102CD000FF22E4FEFDFC90A0CCE0F8A3E0F9A3E025
:102CE000FAA3E0FB12545990A0C4E0F8A3E0F9A3C2
:102CF000E0FAA3E0FB22E49080F8F090A0B9E07540
:102D0000F003A40490A0B6F090A0BC7401F0A374EA
:102D100080F0A37400F090A0B6E0FF90A0BDE48F17
:102D2000F002537E90A0C2E0FCA3E0FDC3EF9DFF44
:102D3000EE9CFEC3EF9464EE940022EE5407F0A3E1
:102D4000EFF07B0122FBE0FFC374FF9FFFE49400E0
:102D5000FE7C007D901252E17DFF1252F3EF246061
:102D60002290A0BBE0FFE4FCFDFEEB2FFFEE3AFE5D
:102D7000ED39FDEC38FC90A0C40255F174F09BFED7
:102D8000C3EF9EF090A0B674FFF022FF90A0BCE0CD
:102D9000FBA3E0FAA3E0F922E0FCA3E0FDC39FEC73
:102DA0009E2290F00A7455F022EB2FFFEA3EFEEDD2
:102DB00039FDEC38FC0255F190A0B91255F190A301
:102DC0006DE090A0B1F090A370E090A0B2F022E08E
:102DD000FEA3E0FFC322E0FEA3E0FF7C007D0A0229
:102DE00052F39BFFEE9AFEED99FDEC98FC0255F133
:102DF000EE540FF0A3EFF022E0FCA3E0FDC3EF9D43
:102E0000FFEE9C222DFDE03CCDC39FFFED9EFE908A
:102E1000A0CEF0A3EFF02290A0B7E0FEA3E0FF2247
:102E200090A36EE0C394642290A0C60255F1C390B3
:102E3000A0CFE09DFF90A0CEE09CFE2290A0B5E048
:102E4000FEA3E0FF227B017A8079D722908106746D
:102E500042F022A3E0FCA3E0FD22FDE43EFCEBC334
:102E60009DE49C22EE540FF0A3EFF022EFF090A02F
:102E7000C1740AF0221255F190A0D3E024FC543F13
:102E800022A3F090A0B1E0FCA3E0FD229080F9F035
:102E90007B017A8079FC2290A0C6E09F90A0C5E0DB
:102EA0009E227B017A80793222E0FEA3E0FFED9F33
:102EB000EC9E227B017A80793622FFE4F0A3EFF0CA
:102EC00022543F90A0B0F090A36F22E4FCFD025585
:102ED000F1E0FCA3E0FDE4024EE312CF8590A0BF39
:102EE000EFF012CF8B90A0C0EFF012CF9190A0C165
:102EF000EFF09080FA74F8F0122EA212895190A08F
:102F0000CC122ECBE490A0B9F090A0B9E0FFC3940E
:102F10000340030230C5EF122CFF122D8C125245D4
:102F200090A0B8F090A0B8E0FDD394075003022F12
:102F3000D8122CF6122D8CED1230C7122DA2129B36
:102F4000495004D21680139080F8E020E704D2099B
:102F500080081288FC122D2440E1200902D216308C
:102F6000160302302CE490A0B7F090A0C81255FDD3
:102F700000000000E490A0B6F090A0B6E0FFC3947B
:102F8000085045EF122E8C128951E4FCFD122D766B
:102F900090A0C4122CC678081255D2122D769080BB
:102FA000FBE090A0BBF0122CE7122D617F03122CE6
:102FB000D2D312559A400890A0B774FFF0800990C0
:102FC000A0B6E004F0022F7990A0B7E0700A90A0BC
:102FD000B8E024F8F0022F2490A0B8E07005D216D3
:102FE00002302CE490A0BAF090A0BAE0FDC3941097
:102FF0004003023093122CF690A0B8E0C39D122D2E
:103000008BEF1230C7122DA2129B495004D21680AA
:10301000139080F8E020E704D20980081288FC129F
:103020002D2440E1200902D21630161A90A0BFE0EC
:10303000FF12CF6190A0C0E0FF12CF6790A0C1E067
:10304000FF12CF6DC322E490A0B7F090A0C8125534
:10305000FD000000007407122E8C128951E4FCFD63
:10306000122D7690A0C4122CC678081255D2122DBB
:10307000769080FBE090A0BBF0122CE7122D617FD0
:103080000A122CD2D312559A500990A0BAE004F03B
:10309000022FE890A0B9E075F003A40490A0B6F068
:1030A00090A0BAE0FF90A0B8E0C39F90A0B7122D07
:1030B0000790A0B7E0122D8BEF1252AD90A0B9E0AF
:1030C00004F0022F09D3221252AD90A0B9E0F4040B
:1030D00075F008A4249090A0B6F09080F8F0C20992
:1030E0001288FC90A0C2EEF0A3EFF02290A0B0EF07
:1030F000F090A0BA1255FD0000000090A0BE12553D
:10310000FD0000000090A0C21255FD0000000090DC
:10311000A0CA1255FDFFFFFFFF9080D9E0543F90F9
:10312000A0B1F0122E4C90A0B27401F090A0B0E0CB
:10313000FF90A0B2E0C39F40030232D9122E20506C
:1031400007E0FF04F0125885E490A0B5F01288FC67
:1031500090A0CEEEF0A3EFF0122DA2129B495002E8
:103160008020908106E020E10890A0B57401F080F5
:103170000B1288FC90A0CE122D2740DC90A0B5E069
:103180007004D216C32290A0B2E0FF90A0B1E02F4D
:103190001232E3122E4C7B017A817915128951E4A7
:1031A000FCFD122E2890A0C6122CC678101255D203
:1031B000122E2890A0C6122CEAC000C001C002C086
:1031C000037B017A817913128951E4FCFDD003D08D
:1031D00002D001D00090A0C6122DA990A0B5E01495
:1031E000543F90A0B4F090A0BA122CC6A31255F18F
:1031F00090A0B6122CC6A31255F190A0C6122CC6F0
:1032000090A0B61255F190A0BA122CC678011255B2
:10321000ABC004C005C006C00790A0B6122CC6788B
:10322000021255ABD003D002D001D000EF2BFFEE3D
:103230003AFEED39FDEC38FCC004C005C006C007FD
:1032400090A0BE122CC678021255ABD003D002D08B
:1032500001D000EB2FFFEA3EFEE93DFDE83CFC1209
:103260002E2890A0B2E0C3940450030232C490A070
:10327000C2122CC6A3122CEAD312559A90A0C2E017
:10328000400D122CEB122E53A3E0FEA3E080091296
:103290002CC7A3122CEAC3EF90A0C2122DE290A07B
:1032A000CA122CC690A0C2122CEAC312559A50140E
:1032B00090A0B4E090A0B3F090A0C2122CC690A051
:1032C000CA1255F190A0C6122CC690A0C21255F198
:1032D00090A0B2E004F002312C90A0B3E0141232BE
:1032E000E3D322543FFF90A0B5F012CF5B2290A011
:1032F000ADEFF0A3EDF0A312BB647F007E1B7D3722
:103300007C4B12BB7C7E0412BB51C312559A400BFE
:1033100090A0B7740AF0A3740480147E0112BB510C
:10332000C312559A90A0B7400C7408F0A37401F032
:10333000A3E4F0800A7404F0A3E4F0A37410F09006
:10334000A0B8E0FCA3E0FDE4124EE312BB737F00E3
:103350007E1B7D377C4B124DD4C004C005C006C017
:103360000790A0AF12BB64D007D006D005D00412DE
:10337000BB7C90A0B7E0C3940F502AE47FFFFE12FD
:10338000BB5312559A401E90A0B3E0FCA3E0FDA3EE
:10339000E0FEA3E0FF78011255AB12BB8B90A0B703
:1033A000E004F080CD90A0B7E0FF1313543FFDEF91
:1033B0005403FE90A0ADE0FB64017044EE25E0FEF6
:1033C00090807EE054F990A0B7F0AF06E04F908077
:1033D0007EF090807FE054FC90A0B7F0E04410AE07
:1033E000054E90807FF090A0B3A3A3A3E0908074DB
:1033F000F0908075E0F0908C80E04440F00234D78B
:10340000EB640260030234D77D0F90807EE0540F9E
:10341000F090807FE05453F0EDC39480400F908093
:103420007EE0F090807FE04408F00234C0EDC39469
:1034300040400DED9480500890807EE044608035DF
:10344000EDC39420400DED9440500890807EE04400
:10345000408022EDC39410400DED942050089080E0
:103460007EE04420800FEDC394084013ED9410508B
:103470000E90807EE0F090807FE04404F08041ED8B
:10348000C39404400DED9408500890807EE04440C1
:103490008028EDC39402400DED9404500890807E86
:1034A000E044208015EDC39401400BED94025006DA
:1034B00090807EE0800490807EE0F090807FE0F05D
:1034C00090A0B3A3A3A3E0908076F0908077E0F083
:1034D000908C80E04480F0E490A0AEF02212CF8582
:1034E00090A0BBEFF012CF8B90A0BCEFF012CF9169
:1034F00090A0BDEFF012CF8590A0B8EFF012CF8B67
:1035000090A0B9EFF012CF9190A0BAEFF0E490A0A4
:10351000B7F0E490A0B6F01288FC90A0BEEEF0A345
:10352000EFF0908106746EF0122DA2129B495004A8
:10353000D216801A908106E020E10890A0B67401AE
:10354000F0800B1288FC90A0BE122D2740DA90A0CC
:10355000B6E07002D216301605123682C322E4900D
:10356000A0B6F0908113E090A0B8122D45FFE43E84
:10357000AD07122E5D500302367BEBC394F0500C66
:1035800090A0B8E0FF94084003122D7CEBD394F890
:10359000401190A0B8E094F85009EB2408FFE02F08
:1035A000122D83908114E090A0B9122D45122E5A4D
:1035B000500302367BEBC394F0500C90A0B9E0FFAF
:1035C00094084003122D7CEBD394F8401190A0B9DD
:1035D000E094F85009EB2408FFE02F122D8390812E
:1035E00015E0FB90A0BA122D46122E5A5003023657
:1035F0007BEBC394F0500C90A0BAE0FF940840031A
:10360000122D7CEBD394F8401390A0BAE094F850BC
:103610000BAF03EB2408FFE02F122D8390A0B6E040
:10362000703290A0B8E0FFC39408404FEFD394F8F5
:10363000504990A0B9E0FFC39408403FEFD394F8FD
:10364000503990A0BAE0FFC39408402FEFD394F80C
:103650005029D32290A0B8E0FF12CF6190A0B9E02A
:10366000FF12CF6790A0BAE0FF12CF6D90A0B7E035
:1036700004F0E0C394805003023512123682D21651
:10368000C32290A0BBE0FF12CF6190A0BCE0FF126C
:10369000CF6790A0BDE0FF12CF6D22908024E09014
:1036A000A0ABF0E4908024F07F0C7EBB7D02FC7B1D
:1036B000017A8B79211288BA908605E090A352F0A6
:1036C00090871AE090A34DF090871DE090A34EF0F4
:1036D000E4908605F090871A7420F090871D741589
:1036E000F09088A6E090A0ACF0908737E090A0AD75
:1036F000F09087247440F0908737E04402F090887F
:10370000A6E04480F012B49212895190A0AEEEF07F
:10371000A3EFF012B46E12895190A0B0EEF0A3EFB7
:10372000F012B4927D017C0012898312B46E7D0187
:103730007C00128983E49088A4F09088A5F07F0231
:10374000FE12C1149088A6E030E01E90A0AA74FF7B
:10375000F090A0AAE0FFD3947F402B12383230E0E3
:103760002590A0AAE014F080E8E490A0AAF090A030
:10377000AAE0FFC39480500E12383220E00890A0D7
:10378000AAE004F080E89088A6E030E11E90A0AAAC
:1037900074FFF090A0AAE0FFD3947F402B1238432F
:1037A00030E12590A0AAE014F080E8E490A0AAF00F
:1037B00090A0AAE0FFC39480500E12384320E10885
:1037C00090A0AAE004F080E89088A4E0647F600400
:1037D000E0B48005E49088A4F09088A5E0647F6060
:1037E00004E0B48005E49088A5F090A0ABE0908060
:1037F00024F090A352E0908605F090A34DE09087CE
:103800001AF090A34EE090871DF090A0AE12B44144
:1038100012898312B46E90A0B0E0FCA3E0FD12897F
:103820008390A0ACE09088A6F090A0ADE0908737A0
:10383000F0229088A4EFF07F027E0012C1149088DD
:10384000A6E0229088A5EFF07F027E0012C11490BE
:1038500088A6E02212A3AB90A0BAEFF06421600822
:10386000E064416003023953908734E020E10302B1
:103870003937908744E0546070030238FD90A37C90
:10388000E0707A9086B5E04404F090811BE044201B
:10389000F0908020E030E26B908745E054C0648077
:1038A0007B017A80794B702390896B12C4EE128968
:1038B0008312C4E412898312C50190896F12C4ED8A
:1038C00012898312C508908971802490896312C47B
:1038D000ED12898390896512C4E712898312C501AC
:1038E00090896712C4ED12898312C5089089691204
:1038F000C4ED1289839080537409F0800B12C4F5D3
:1039000054DFF0E4908053F0908748E0540FFF902C
:103910008608E0540FFEEFB40106EE4450FE800826
:10392000EFB40304EE44F0FEAF06908608EEF0908C
:10393000871A7420F0801812C4F554DFF0E49080E8
:1039400053F0908608E0540FF090871A7410F0E45A
:103950000239EC90A0BAE0FF64516008EF64616046
:10396000030239E112C4F54420F09080537409F049
:10397000E4908054F0908055F07B017A8079361283
:103980008951C3EE94057B017A80794B402390895D
:103990006B12C4ED12898312C4E412898312C5012B
:1039A00090896F12C4ED12898312C50890897180C5
:1039B0002A90896312C4ED1289837B017A80794D44
:1039C00090896512C4ED12898312C501908967122E
:1039D000C4ED12898312C50890896912C4ED028969
:1039E0008312C4F554DFF0E4908053F0908054F0DB
:1039F000908055F022E490A0BEF0A3F0A3F0FF1257
:103A0000CF73E4FF12CF79E4FF12CF7FC21690810B
:103A1000BB7480F09081BC7403F0908023E030E7A9
:103A2000079081BD74808004E49081BDF09081BFD7
:103A3000F0122E6EE490A0B8F0A3F0A3F0A3F0A3D0
:103A4000F0A3F01288FC90A0B6EEF0A3EFF0122DD8
:103A5000A27F027E0012C114129B495005D21602A9
:103A60003B5412CF9790A0BE123B7F400912CF97D4
:103A700090A0BE122E6C12CF9D90A0BF123B7F4033
:103A80000912CF9D90A0BF122E6C12CFA390A0C0A0
:103A9000E0C39FFFE49400FE120016D3EF9403EE00
:103AA00064809480400C12CFA390A0C0EFF0A37468
:103AB0000AF090A0C1E090A0BEB40A20E090A0B8A7
:103AC000122EBA90A0BFE090A0BA122EBA90A0C059
:103AD000E0FF90A0BCE4F0A3EFF08033E0FF90A003
:103AE000B9E02FF090A0B8E03400F090A0BFE0FF64
:103AF00090A0BBE02FF090A0BAE03400F090A0C0FE
:103B0000E0FF90A0BDE02FF090A0BCE03400F0906A
:103B1000A0C1E014F0702190A0B8122DD690A0BEE4
:103B2000EFF090A0BA122DD690A0BFEFF090A0BCFD
:103B3000122DD690A0C0EFF090A0C1E060161288C0
:103B4000FC90A0B6122DF8FEC3EF942CEE94015019
:103B500003023A4EE49081BBF09081BCF020161E27
:103B600090A0BEE02404FF12CF7390A0BFE0240415
:103B7000FF12CF7990A0C0E02404FF12CF7F22E093
:103B8000C39FFFE49400FE120016D3EF9403EE648B
:103B900080948022122EA2128951EE540790A0C662
:103BA000122D3E7A807936128951EE540F90A0C8BA
:103BB000122D3E7A80792E128951EE540790A0CAB8
:103BC000122D3E7A807934128951EE540F90A0CC98
:103BD000122D3E7A81790C128951EE540790A0C4BF
:103BE000122D3E7A817910128951EE540F90A0C2A5
:103BF000122D3E7A817908128951EE540790A0C0A7
:103C0000122D3E7A81790E12895190A0BE122E6437
:103C100090A0C6122DCF90A0C5E09F90A0C4E09EBA
:103C2000504512B66E90A0C0122D98503A90A0CA7E
:103C3000122EA9402390A0C5E090A0C4122E04909B
:103C4000A0C6122D985020122E2E90A0CBE02FF05F
:103C500090A0CAE03EF0800F90A0C0E0FFA3E090EB
:103C6000A0CACFF0A3EFF090A0C8122DCF90A0C3B0
:103C7000E09F90A0C2E09E504512CF2190A0BE12BE
:103C80002D98503A90A0CC122EA9402390A0C3E0CA
:103C900090A0C2122E0490A0C8122D985020122E6F
:103CA0002E90A0CDE02FF090A0CCE03EF0800F90C1
:103CB000A0BEE0FFA3E090A0CCCFF0A3EFF090A0D7
:103CC00022E0FEA3E0FF90A0CC122D985002800FBE
:103CD00090A024E0FEA3E0FFD3ED9FEC9E4008906F
:103CE000A0CCEEF0A3EFF090A0CCE0FEA3E0FF129A
:103CF000CC6A90A0CAE0FEA3E0FF12C38112CD8F70
:103D000090A013EEF0A3EFF012CD9990A015EEF075
:103D1000A3EFF022122EA212895190A0B8122D3BCF
:103D20007A80793612895190A0BA122DF0128D58EE
:103D3000E4908106F090A0BC7430F090A0BCE0FF4D
:103D4000C394A05074908107EFF0E490A0BDF012EE
:103D5000BE5150427B017A81790C12895190A0B2F8
:103D6000122D3B7A81791012895190A0B0122DF05A
:103D7000D390A0B3E0940090A0B2E094014013D39C
:103D800090A0B1E0940090A0B0E094014004D2096A
:103D90008006C2098002C32230090C90A0BDE00455
:103DA000F0E0C3940540A890A0BDE06405600A90CF
:103DB000A0BCE02410F0023D3B90A0BCE0D394A056
:103DC00040012212BE5150457B017A81790C128943
:103DD00051EE540790A0B6122D3E7A8179101289C7
:103DE0005190A0B4122E6490A0B0122DCF90A0B527
:103DF000E090A0B4123E76505E90A0B2122DCF900B
:103E0000A0B7E090A0B6123E764004804AC3227B61
:103E1000017A81790E128951EE540F90A0B0122DC3
:103E20003E7A817908128951EE540790A0B2F0A32E
:103E3000EFF090A0B2E0FCA3E0FD122CEFA3E0FFB6
:103E4000A3E090A0C4CFF0A3EFF090A0B0E0FEA359
:103E5000E0FF1295F05007D217123B94C32290A0B6
:103E6000B0E0FEA3E0FF12CC6A90A0B2E0FEA3E0B7
:103E7000FF12C381D3229FFFE09EFE120016D3EFF4
:103E80009405EE6480948022122E4512895190A0F0
:103E9000B7EEF0A3EFF0122E1790A0B3EEF0A3EF61
:103EA000F0A3EEF0A3EFF090A0B91255FD000000D2
:103EB0000090A0C11255FDFFFFFFFF90A0B8E024C5
:103EC000FEF090A0B7E034FFF0E490A0B0F0122E26
:103ED00017129A9212479490A0BD1255F130160213
:103EE000C322122CC390A0B9122CEAC312559A50C7
:103EF0001590A0B7E0FFA3E090A0B3CFF0A3EFF040
:103F0000122CC3122DB8122CC3A3122CEAD31255B3
:103F10009A4016122CC3A31255F190A0B7E0FFA34C
:103F2000E090A0B5CFF0A3EFF090A0B8E004F0705F
:103F30000690A0B7E004F090A0B0E004F0E0C394D5
:103F400004408B90A0B3E0FEA3E0FF90A0B7EEF09A
:103F5000A3EFF090A0B5122DF8FE120016EF640149
:103F60004E600A90A0B7E0F0A3E054FEF0122E17C6
:103F7000129A92122E1790A0B3E06E7003A3E06F16
:103F80006009124794122CBD122DB8122EB312895B
:103F90005190A0B3EE122D3E7A8079321289519061
:103FA000A0B5EEF0A3EFF090A0B3E0FEA3E0FF1207
:103FB0002E531256BFE47B40FAF9F8125459122CD2
:103FC000BD90A0B9122CEAC312559A500E90A0B120
:103FD000E02418122EC17420F0800C90A0B2E024CE
:103FE000F8122EC17410F090A0B0E0FF12CF5BD396
:103FF0002290A0AFEFF090A33AF012CFCC50030282
:10400000410F12C9D19081A7E090A0B1F0E4908156
:10401000A7F07F0AFE12C11490A0B1E09081A7F032
:1040200090A0AFE0125693404911405412406013E3
:10403000406921408031408C3240983340A041405B
:10404000AF5140BA61000040C312C676E490A0B000
:10405000F00240C312C67690A0B07401F00240C3D3
:104060001241107402F00240C39081997443F090A1
:10407000871A7420F0740212C6837403F00240C3DE
:1040800012C67690A0B07404F00240C312C67690B7
:10409000A0B07405F00240C31241107406F08023F2
:1040A000744312C678740312C6837407F080141226
:1040B000C6761241357408F0800912C67612413571
:1040C0007409F07F0EE4FEEEC39F503CEE75F003E2
:1040D000A424F2F582E4347CF583E493FB74019329
:1040E000FA740293F990A0B0E075F00EA4241CF5C8
:1040F00082E4347DF583E5822EF582E43583F58311
:10410000E4931252AD0E80BF7F507E0012C1142284
:104110009081997442F090871A7410F0908021E099
:104120004440F07F027E0012C114908021E054BF11
:10413000F090A0B022908021E04440F07F027E0009
:1041400012C114908021E054BFF090A0B022121C44
:104150004812895190A0C0EE121C0930E21490A0C0
:10416000C0E0FEA3E0FFEE121B5F90A0C0EEF0A344
:10417000EFF0121C6B128951AB07AA0690A0C01277
:104180001AA49BEC9A908190E040054420F08003B3
:1041900054DFF0AE02AF03D3ED9BEC9A5011908048
:1041A00020E020E20A908150E030E5030242A19035
:1041B00080F5E090A0BEF09080F5E054FEF090A372
:1041C0003D1219677F407E9CFD1218DC12C1147BE2
:1041D000017A81797712BB0790A0C4EEF0A3EFF0CB
:1041E00090A0C4121A33C4540F90A0BFF0EC540F27
:1041F000AF0590A0C2F0A3EFF0121BB412BB079062
:10420000A0C4EEF0A3EFF090A0BFE0FF7E0090A06E
:10421000C4E0FCA3E0FD1252E190A0C3E02FF090B7
:10422000A0C2E03EF0A3E02480F090A0C2E0340100
:10423000F0908020E030E226121BB412BB07EEC3E0
:1042400013FEEF13FF90A0C0EEF0A3EFF0A3E0FE8B
:10425000A3E0FF90A0C0121BE5A3F0A3EFF090A095
:10426000C4E0FAA3E0FB121B2690A0BFEFF0121BE4
:104270002690A0C2ECF0A3EDF090A0BFE090815199
:10428000F07B017A81795290A0C2E0FCA3E0FD129C
:10429000898390A0BEE09080F5F0908150E054BFFB
:1042A000F022748B129D167480F07489129D4290D6
:1042B00081EAE04440F090800A7488F090F0A8749D
:1042C0007FF0740FF07F147E0012C114E490F0A808
:1042D000F09081EAE054BFF090800A7401F0908081
:1042E000127481129D0490A33AE0FF64116005EFFF
:1042F0006412706E90F0A9E0D3940A500890F0AA6E
:10430000E09400405D90F0A8748FF07F147E00125E
:10431000C11490A33AE0B4111590F0ADE0D394002D
:10432000400CE0940A500712C4367F11802790A3F6
:104330003AE06412702C908B57748BF012CD3A7463
:10434000101243D0FFBF201212B66E129CF9400A21
:1043500012C4367F12123FF1D32212CD45E4908B66
:1043600057F090A33AE0FF64136005EF6451705E6C
:1043700090F0ABE0D3940A500890F0ACE094004089
:104380004D748B129D4290800AE04408F07418121C
:1043900043D06420702912934A502412B66E129CA6
:1043A000F9401C12C43690A33AE0B413047F138082
:1043B0000990A33AE0B451057F51123FF1D3229006
:1043C00080127481F090800AE054F7129D04C32299
:1043D000908000F09081967461F07F327E0012C16F
:1043E0001490819AE054E022201D0302451EC21D54
:1043F00090A375E0D3940540037405F090A375E095
:10440000FF700A7418129D89F0A3F08061EFB40167
:10441000097408129D8974188050EFB40209742041
:10442000129DAD74088043EFB403097410129DAD62
:1044300074208036EFB404097428129DBD74108076
:1044400029EFB405097430129DBD7428801CEFB4A7
:10445000060E90A0AB7438F0A3E4F0A37430800A89
:10446000E490A0ABF0A3F0A37438F0A3E4F0EFB4B1
:104470000507E490A0ABF0A3F0129DB690A0ABE0CE
:10448000FEA3E0FF12BEFC90A0ABE0540FFEA3E041
:104490004E700812451FE4FD127F87E490A0AFF034
:1044A000A3F0C390A0AFE09408503012451F90A035
:1044B000AFE0FCA3E0FD2FFFEC3EFEE42DFDEC346D
:1044C000A8FCE490A0B6F0FB1274D690A0B0E02453
:1044D00000F090A0AFE03401F080C712891B90A0DB
:1044E000ACE090A0AB129E067D55127C3390A0AD3F
:1044F000E0FEA3E0FF12BEFC12891B90A0AEE0908C
:10450000A0AD129E06FD127C3390A375E0FF04F06F
:10451000EFC394054002E4F012C178129DB6221256
:10452000891B90A0ABE0FEA3E0FF2290A35DE064B6
:1045300007600312B4FE90A35DE024FE6043147094
:10454000030245C214700302465514700302460C60
:1045500014700302465D2405600302466090A2F6D3
:10456000E0FF24FB60181460072405600302466026
:1045700012C52FEFF01288FC12C51B02C8A602A6B6
:104580009E12C524600302462690A2F6E024FA702B
:1045900003024660240424FA50030246601288FC99
:1045A00090A35AE0FCA3E0FDC3EF9DFFEE9CFED379
:1045B000EF9464EE9400500302466090A35D740390
:1045C000F02290A359E030E00302466012BB9B90BA
:1045D000A2F6E014602824FB500860221460260232
:1045E000466012205412B7205002800A12AE8A5040
:1045F0000512BE15800F90A2F67407F080077402B2
:1046000012C50F803690A35D7405F02290A2F6E0EB
:10461000FF24FE24FD5012601514600714602F243F
:1046200006703D12C52FEF801290A35D801512A673
:104630009E12CFC090A35D500A7402F01288FC1243
:10464000C51B227401F0E4FF12AD1A02C6E490A368
:104650005D7401F02212C524600602CBDF12CBD0BC
:104660002290A034E0FEA3E0FF7C007D3C1256BF08
:1046700090A033129D92129DF81254E4129DC6E44C
:1046800090A0AEF0A3F090A0AE129DFF94FFEE9428
:104690000F5026E42FFFEE3430FE7B017AA079B074
:1046A00012869990A0B0E0701090A0AFE004F07076
:1046B000D590A0AEE004F080CD90A0AA129DE4C0F9
:1046C00000C001C002C003A3E0FEA3E07803C3332F
:1046D000CE33CED8F9FFE4FCFDD003D002D001D018
:1046E00000EB2FFFEA3E129DA5129DC690A0B0E000
:1046F000FBB4FE0B90A0AA129D6D240102475CEB57
:10470000B4FC0A90A0AA129D6D2402804F90A0B024
:10471000E0FBB4F80A90A0AA129D6D2403803DEB43
:10472000B4F00A90A0AA129D6D2404802F90A0B02E
:10473000E0FBB4E00A90A0AA129D6D2405801DEB59
:10474000B4C00A90A0AA129D6D2406800F90A0B05C
:10475000E0B4801590A0AA129D6D2407FFE43EFEF0
:10476000E43DFDE43CFC129DC690A0AA129D6D1292
:104770009DF7125459129DC6129D64FF1254E49085
:10478000A031EEF0A3EFF0129D64FF1254E490A06C
:1047900030EBF02290A0CD1255FD0000000090A05B
:1047A000C91255FDFFFFFFFFE490A0D3F0FF12CF29
:1047B0005B122E4C90A0D37404F090A0D3E0C3946D
:1047C0004240030248A9122E205007E0FF04F012D5
:1047D0005885C2091288FC90A0D1EEF0A3EFF01228
:1047E0002DA2129B4950028019908106E020E1041D
:1047F000D209800B1288FC90A0D1122D2740E02016
:104800000908D216E4FFFEFDFC2290A0D3E0FF12BF
:10481000CF5B122E4C7B017A81791512895190A0C1
:10482000C5122ECB90A0C5122CC678101255D2906E
:10483000A0C51255F190A0C5122CEAC000C001C05D
:1048400002C0037B017A817913128951E4FCFDD007
:1048500003D002D001D00090A0C5122DA990A0C90C
:10486000122CC690A0C5122CEAC312559A500E9075
:10487000A0C5122CC6A3122E7590A36DF090A0CDEA
:10488000122CC690A0C5122CEAD312559A40109053
:10489000A0C5122CC690A0CD122E7590A370F090DA
:1048A000A0D3E02404F00247BA90A0C9122CEA1267
:1048B0002E53A3E0FEA3E0C390A0C5122DE290A06A
:1048C000C5122CC62290A0AFEEF0A3EFF0D394FF58
:1048D000EE9403400C7F0A12CDA37F007E80024934
:1048E000C390871AE020E5030249C6908104E07076
:1048F000030249C612B49212895190A0B1EEF0A3FE
:10490000EFF090A0AF7CFF7DFE12B44DEF2401FFCD
:10491000E43E90A0B3F0A3EFF07F0A12CDA390A0E5
:10492000B3E0FAA3E0FBD39400EA946090871DE023
:10493000400554EFF080034410F090A0B1E0FEA3D6
:10494000E0FFD39BEE9A403690A0B5EEF0A3EFF0D7
:1049500012B45FD39DEE9C40621249EA90A0B3125C
:10496000B49990A0B6E090A0B512B475404D90A057
:10497000B6E024F8F090A0B5E034FFF080D290A02B
:10498000B1E0FFA3E090A0B5CFF0A3EFF012B45FC9
:10499000C39DEE9C50251249EA90A0B512B499909F
:1049A000A0B4E090A0B312B475401090A0B6E0247B
:1049B00008F090A0B5E03400F080D290A0B3E0FE03
:1049C000A3E0FF02C65090A0AF12B49974FF9FF00D
:1049D00074039E90A0AFF07C007D3B12B44D90A07C
:1049E000AFEEF0A3EFF012CDA32290F00A7455F0D1
:1049F00012C65022122EB312895190A0B1EEF0EFE0
:104A0000122E8125E0FEEC33A3F0A3CEF07B017AD9
:104A1000817917128983122E4512895190A0B5EE23
:104A2000F0A3EFF0122E3C90A0B9EEF0EF122E8121
:104A3000D3EF9DEE9C5011ED2410FFE43CFE90A0BE
:104A4000B5F0A3EFF0129A92E490A0B0F0128D5856
:104A500012BE514003024AE77B017A817910128924
:104A600051EE540F90A0B7F0A3EFF0908119E0FF42
:104A700054C0C413135403FEEF543FFFEE607CEEAA
:104A8000B40126EFFD90A0B6E02DF090A0B5E03483
:104A900000F090A0B3E0FCA3E0FDD390A0B6E09DB1
:104AA00090A0B5E09C4002802EEED394014020906F
:104AB000A0B6E09FFF90A0B5E09400FEF0A3EFF059
:104AC000D390A0B2E09F90A0B1E09E400280081277
:104AD0002E3C12C5DC500890A0B074FFF0801C1270
:104AE0002E3C129A928005124B0BC32290A0B0E08C
:104AF00004F0E0C394205003024A4D90A0B0E0B40B
:104B0000FF07124B0BD217C322D32290A0B9E0FEAD
:104B1000A3E0FF129A922212CA81401012CE6412B0
:104B2000CE527F2C7E0112C11412CF4F128E5F9095
:104B3000A0AAEFF064016003024BC312CAE0400672
:104B400090A0AA7406F090A2FEE0D394004006E084
:104B500014F0024BC312C9EB12BBE390A2EDEEF0CE
:104B6000A3EFF01288FC90A2F4E0FCA3E0FDC3EFF9
:104B70009DFFEE9CFED390A2EEE09F90A2EDE09E02
:104B80005003301B1D301B0590A2FB801012CB0B75
:104B900012C3FF602E90A0ABE090A2FBF0124BC9B5
:104BA000802112CB1F12C3FF600E90A0ABE090A239
:104BB000FBF0124BC912CA1D1288FC90A2F4EEF051
:104BC000A3EFF090A0AAE0FF22E090000693FF126E
:104BD0003FF122024F88E86480F8E933E83360113E
:104BE0000460F0ED33EC337009E8FCE9FDEAFEEB1C
:104BF000FF220460DED3EB9FEA9EE99DE8C2E78CCA
:104C0000F0C2F795F0400CE8CCF8E9CDF9EACEFA1D
:104C1000EBCFFB124F5385D0F05804700320D5B36F
:104C2000E80470075002B2D5024F9292D5EC0460AE
:104C3000F7E4CCC0E0C398F8603B94186008400DDE
:104C4000D0E0FB024F6AE4FBFAC9FC8028E830E4BC
:104C500006E4C9FBE4CAFCE830E305E4C9CACBFCBE
:104C6000E854076010F8C3E913F9EA13FAEB13FBF1
:104C7000EC13FCD8F130F52FC3E49CFCEF9BFFEE66
:104C80009AFEED99FDD0E0FBEF4E4D4C701222DB09
:104C900003024F8FEC2CFCEF33FFEE33FEED33FDC0
:104CA000ED30E7EB024F6AEF2BFFEE3AFEED39FDF8
:104CB000D0E0FB50130BBB0003024F92ED13FDEE4F
:104CC00013FEEF13FFEC13FC024F6AEC4D6011E88A
:104CD000497017ED33EC3304600DE4FCFFFEFD2258
:104CE000E933E8330470F8024F88124F53580460D8
:104CF00009E4CC24815006285009024F9228400331
:104D0000024F8FC0E0EB4A7044B98006D0E0FB024E
:104D10004F7EEF4E701CBD8008EBFFEAFEE9FD8080
:104D2000EBE98DF0A4FEE5F0024DB4E9CDF9EAFE21
:104D3000EBFFEF89F0A4FCE5F0CE89F0A42EFFE4B0
:104D400035F0CD89F0A42DFEE435F08067EF4E708C
:104D500005BD80D780C3EF8BF0A4ACF0EE8BF0A440
:104D60002CFCE435F0F8EF8AF0A42CE5F038FCE4F4
:104D700033CB8DF0A42CFCE5F03BF8EE8AF0A42CAC
:104D8000FCE5F038F8E433CF89F0A42CFCE5F038EA
:104D9000CF3400CE89F0A42FFFE5F03EFEE433C906
:104DA0008DF0A42EFEE5F039CD8AF0A42FFFE5F0BA
:104DB0003EFEE43DFD33D0E0FB50070BBB000F028D
:104DC0004F92EC2CFCEF33FFEE33FEED33FD024F40
:104DD0006A024F92EC5D046005E859047003024FCB
:104DE00088124F53580460F6EC4860F2EC7004FDF2
:104DF000FEFF22C860DB2481C85009C398600250BE
:104E000006024F8F9850CAF582E9294B4A7005ABCC
:104E100082024F7E75F0007C1A7880C3EF9BEE9A79
:104E2000ED99400DC3EF9BFFEE9AFEED99FDE84230
:104E3000F0DC23ACF0D0E0FFD0E0FED0E0FDAB82B0
:104E400020E7101BEB60BAEC2CFCEF33FFEE33FED7
:104E5000ED33FD024F6AE803F830E705C0F075F066
:104E600000EF2FFFEE33FEED33FD40B830E7C28098
:104E7000AA74F8CC6480CCC86480C8F5820460430E
:104E8000C3EB9FF5F0EA9E42F0E99D42F0E89C45B5
:104E9000F060305018E5825FFFE582F42B5582FB0D
:104EA00050210ABA001D09B90019088016E5825B75
:104EB000FBE582F42F5582FF50090EBE00050DBDA3
:104EC00000010CC3EB9FF5F0EA9E42F0E99D42F031
:104ED000E89C45F06007CC4820E701B3EC2275F070
:104EE00020800E75F010800575F0087D007E007F33
:104EF000003392D530D503125576EC334010EF33A2
:104F0000FFEE33FEED33FDEC33FCD5F0ED22E5F0A2
:104F1000247EA2D513CC92E7CDCEFF22EDD2E7CDF1
:104F200033EC3392D524814006E4FFFEFDFC22FCE5
:104F3000E4CFCECDCC24E0501174FF80EDC3CC1370
:104F4000CCCD13CDCE13CECF13CF0470F030D5DE41
:104F5000025576E9D2E7C933E833F892D5EDD2E7C6
:104F6000CD33EC33FC5002B2D522EC30E7100FBF4A
:104F7000000C0EBE00080DBD00040BEB6014A2D5A2
:104F8000EB13FCED92E7FD2274FFFCFDFEFF22E433
:104F900080F8A2D574FF13FC7D80E480EFF920E750
:104FA0003624F950037907E4F42402FBE5821582E4
:104FB00070021583DBF6E024FB501BE96014E4F07B
:104FC000E582158270021583E004F0B40A08E4F06B
:104FD000D9EE7401F00A22C2D522ED33EC3392D51A
:104FE000FA602AB4FF33EDC2E77BFF60067A4F799F
:104FF000FFE4227A50790820D5047A507903224EB2
:10500000614E002B494E46002D494E4600E47A0879
:10501000F0A3DAFC7B00740722C083C082ECC0E0FE
:10502000EDC0E0EEC0E0EFC0E0EA75F010A4CAAB5E
:10503000F075F04DA42BFBE435F0FCEA2410FAEBFC
:1050400034C5FBEC34D9FCEDC2E7FF75F056A4F48F
:105050002411C5F0F434C58FF0A42AE5F03BE43CFC
:10506000F020E71412510FD0E0FFD0E0FED0E0FDB9
:10507000D0E0FC124DD48014F40412510FD0E0FFA4
:10508000D0E0FED0E0FDD0E0FC124CCBD082D0834B
:10509000E0FAEDD2E7CD33EC332482FBE4C3CF3327
:1050A000CFCE33CECD33CD33DBF37B0775F00A841F
:1050B0006004F0A31B0AE5F0F0A38FF0740AA4FFCC
:1050C000ACF08EF0740AA42CFEACF050010C8DF004
:1050D000740AA42CFDE435F0F0A3DBDE7407223F54
:1050E0008000004120000042C80000447A000046D1
:1050F0001C400047C35000497424004B1896804C54
:10510000BEBC205A0E1BCA6753C21C749DC5AEFBA1
:1051100060065407601C232312513DEB543860098C
:10512000125129125138124CCBECF8EDF9EEFAEF8E
:10513000CB22EB12513880F1543803241C9050DFFD
:10514000FE93FC0EEE93FD0EEE930ECE93FF22E740
:1051500009F608DFFA8046E709F208DFFA803E88A0
:10516000828C83E709F0A3DFFA8032E309F608DFD7
:10517000FA8078E309F208DFFA807088828C83E392
:1051800009F0A3DFFA806489828A83E0A3F608DF4E
:10519000FA805889828A83E0A3F208DFFA804C8083
:1051A000D280FA80C680D4806980F28033801080FB
:1051B000A680EA809A80A880DA80E280CA8033895B
:1051C000828A83ECFAE493A3C8C582C8CCC583CC99
:1051D000F0A3C8C582C8CCC583CCDFE9DEE7800D6B
:1051E00089828A83E493A3F608DFF9ECFAA9F0ED4B
:1051F000FB2289828A83ECFAE0A3C8C582C8CCC5A9
:1052000083CCF0A3C8C582C8CCC583CCDFEADEE876
:1052100080DB89828A83E493A3F208DFF980CC885B
:10522000F0EF60010E4E60C388F0ED2402B404007C
:1052300050B9F582EB2402B4040050AF2323458219
:105240002390519F73BB010689828A83E02250021A
:10525000E722BBFE02E32289828A83E49322BB0118
:105260000CE58229F582E5833AF583E0225006E9D0
:105270002582F8E622BBFE06E92582F8E222E582D5
:1052800029F582E5833AF583E49322BB01098982FB
:105290008A83F8E028F022500327F722BBFE05F8A6
:1052A000E328F3228A838982F8E4932822BB01064B
:1052B00089828A83F0225002F722BBFE01F322F892
:1052C000BB010DE58229F582E5833AF583E8F022FA
:1052D0005006E92582C8F622BBFE05E92582C8F200
:1052E00022EF8DF0A4A8F0CF8CF0A428CE8DF0A4EE
:1052F0002EFE22BC000BBE0029EF8DF084FFADF026
:1053000022E4CCF875F008EF2FFFEE33FEEC33FC0F
:10531000EE9DEC984005FCEE9DFE0FD5F0E9E4CE45
:10532000FD22EDF8F5F0EE8420D21CFEADF075F014
:1053300008EF2FFFED33FD4007985006D5F0F2221D
:10534000C398FD0FD5F0EA22C2D5EC30E709B2D5FB
:10535000E4C39DFDE49CFCEE30E715B2D5E4C39FA9
:10536000FFE49EFE1252F3C3E49DFDE49CFC800327
:105370001252F330D507C3E49FFFE49EFE22C5F02E
:10538000F8A3E028F0C5F0F8E582158270021583D5
:10539000E038F022A3F8E0C5F025F0F0E5821582B0
:1053A00070021583E0C838F0E822BB010A89828ABE
:1053B00083E0F5F0A3E022500687F009E71922BB4D
:1053C000FE07E3F5F009E3192289828A83E493F565
:1053D000F074019322BB0110E58229F582E5833A3E
:1053E000F583E0F5F0A3E0225009E92582F886F084
:1053F00008E622BBFE0AE92582F8E2F5F008E2227F
:10540000E5832AF583E993F5F0A3E99322BB010A2A
:1054100089828A83F0E5F0A3F0225006F709A7F00D
:105420001922BBFE06F3E5F009F31922F8BB0111BE
:10543000E58229F582E5833AF583E8F0E5F0A3F00B
:10544000225009E92582C8F608A6F022BBFE09E928
:105450002582C8F2E5F008F222E88FF0A4CC8BF0A8
:10546000A42CFCE98EF0A42CFC8AF0EDA42CFCEA20
:105470008EF0A4CDA8F08BF0A42DCC3825F0FDE95A
:105480008FF0A42CCD35F0FCEB8EF0A4FEA9F0EB50
:105490008FF0A4CFC5F02ECD39FEE43CFCEAA42D5C
:1054A000CE35F0FDE43CFC2275F008758200EF2F4C
:1054B000FFEE33FECD33CDCC33CCC58233C5829BDA
:1054C000ED9AEC99E58298400CF582EE9BFEED9A00
:1054D000FDEC99FC0FD5F0D6E4CEFBE4CDFAE4CC9C
:1054E000F9A88222B800C1B90059BA002DEC8BF09E
:1054F00084CFCECDFCE5F0CBF97818EF2FFFEE335B
:10550000FEED33FDEC33FCEB33FB10D70399400485
:10551000EB99FB0FD8E5E4F9FA227818EF2FFFEEAC
:1055200033FEED33FDEC33FCC933C910D7059BE9DD
:105530009A4007EC9BFCE99AF90FD8E0E4C9FAE439
:10554000CCFB2275F010EF2FFFEE33FEED33FDCCD8
:1055500033CCC833C810D7079BEC9AE899400AEDC2
:105560009BFDEC9AFCE899F80FD5F0DAE4CDFBE46A
:10557000CCFAE4C8F922C3E49FFFE49EFEE49DFD5B
:10558000E49CFC22EB9FF5F0EA9E42F0E99D42F09C
:10559000EC6480C864809845F022EB9FF5F0EA9EA9
:1055A00042F0E99D42F0E89C45F022E8600FECC330
:1055B00013FCED13FDEE13FEEF13FFD8F122E860AC
:1055C00010ECA2E713FCED13FDEE13FEEF13FFD872
:1055D000F022E8600FEFC333FFEE33FEED33FDEC56
:1055E00033FCD8F122E0FCA3E0FDA3E0FEA3E0FF42
:1055F00022ECF0A3EDF0A3EEF0A3EFF022A8828559
:1056000083F0D083D08212561412561412561412FC
:105610005614E473E493A3C583C5F0C583C8C5825B
:10562000C8F0A3C583C5F0C583C8C582C822A42518
:1056300082F582E5F03583F58322E0FBA3E0FAA34F
:10564000E0F922F8E0FBA3A3E0F925F0F0E58215EC
:105650008270021583E0FA38F022EBF0A3EAF0A39F
:10566000E9F022BB010DE58229F582E5833AF58355
:1056700002563A5007E92582F80256ECBBFE07E9CC
:105680002582F80256F5E58229F582E5833AF5830D
:105690000256FED083D082F8E493701274019370A6
:1056A0000DA3A393F8740193F5828883E4737402C5
:1056B000936860EFA3A3A380DF8A838982E473ECFD
:1056C0008EF0A4CCC5F0CCCDF8EFA4CEC5F02DFD66
:1056D000E43CFCE8A42EC8C5F03DFDE43CFCEFA48E
:1056E000FFE5F028FEE43DFDE43CFC22E6FB08E695
:1056F000FA08E6F922E2FB08E2FA08E2F922E4936A
:10570000FB740193FA740293F92255AA66995352D5
:10571000435C42464150492E632056657273696F5F
:105720006E20322E332E30322041707220313320E1
:105730003230313123000100000000000080000001
:105740000100000000800000000001000080013125
:10575000044700160080040B0117040C008004139A
:10576000000E010500800162048E002C00800416EA
:10577000012E041800800427001C010B0080017614
:1057800004AB00350080041D013C041F008004367A
:10579000001501210080018B04C9003E0080042413
:1057A0000149042600800445000E01370080FF57A0
:1057B00036FF574EFF5766FF577EFF579601000092
:1057C00000000000800000010000000080000000D8
:1057D00000010000801000000040008000C00100B7
:1057E0000140018001C002000240028002C00300AB
:1057F0000340038003C00400FEFCF8F0E0C080001A
:10580000E5905403C403C0E0748AC0E0C082C08342
:10581000028A00E5905403C403C0E0748AC0E0C06B
:1058200082C083028A08E5905403C403C0E0748AEE
:10583000C0E0C082C083028A10E5905403C403C054
:10584000E0748AC0E0C082C083028A18EFC403906B
:105850008A007390BC65010090C0E1010090BCA576
:10586000010090B926010090A8EC0100903046019B
:1058700026900C63013990452B01009043C7012607
:1058800090CEB3010090DFE6011390DFA3011390E7
:1058900049F1012690B87B010090CF43010090426E
:1058A000C2012690CF3D01009040180126903FDBB9
:1058B0000126903ECF01269047B4012690CCF801F6
:1058C0000090D6C8011390D470011390D6E601134E
:1058D00090D9D5011390DE46011390D68A0113901A
:1058E000D428011390DC41011390DC4D011390DCAE
:1058F00059011390DC65011390DF79011390DD29C4
:10590000011390DE4E011390D51E011390D4FC01BB
:105910001390DD32011390DD3B011390DD44011340
:1059200090DE56011390D9A7011390D7CC011390A4
:10593000DD4D011390DD56011390DD5F011390DD05
:1059400068011390DE5E011390D81C011390D802F9
:10595000011390DD71011390DD7A011390DD830155
:105960001390DD8C011390DE66011390D1A2011318
:1059700090D234011390DD95011390DD9E011390B8
:10598000DDA7011390DDB0011390DDB9011390DCA8
:105990007C011390D3B7011390D313011390DDC290
:1059A000011390DDCB011390DDD4011390DDDD01F7
:1059B0001390DDE6011390DC87011390D8360113B4
:1059C00090D583011390DC92011390D84F0113906E
:1059D000D5A4011390DB4C011390DA14011390DA73
:1059E00027011390DC9D011390D722011390D493CB
:1059F000011390DCA8011390D290011390D2BC0146
:105A00001390DB5A011390CC3F011390D13C01134A
:105A100090DB68011390D16F011390CC8501139036
:105A2000DCB3011390D4B6011390D73F011390DC7F
:105A3000BE011390D868011390D5C5011390DB7691
:105A4000011390D881011390D5E6011390DB8401F6
:105A50001390D89A011390D607011390DCC9011353
:105A600090D8B3011390D628011390DCD401139081
:105A7000D8CC011390D649011390DB92011390D733
:105A80005C011390D4D9011390DBA0011390D77956
:105A9000011390D44C011390DBAE011390DBF301A2
:105AA0001390DC00011390DCDF011390DAAA0113DC
:105AB00090DADE011390DCEA011390DB2E011390E3
:105AC000DB3D011390DC1A011390DBBC011390DF66
:105AD0003E011390DF36011390DBCA011390DA3ACE
