:020000020000FC
:100000000281B902784611121341210273657E0301
:100010007F112202751EEE30E707C3E49FFFE49EC6
:10002000FE2222028633013B02580F6002032002A7
:100030000D028001E0028001E00022001E0C0C0392
:100040000700015E029B0F40030360020D02800166
:10005000E0028001E0005100240C0C030900017B48
:1000600002D80F280303400208028001E002800149
:10007000E0007200190C0C030A00017702EE0F4039
:1000800003034801F4028001E0028001E0006A00FD
:100090000D0C0C030B0001B103520F380303400198
:1000A000FD028001E0028001E0004200160C0C031A
:1000B0000C00013502400F200A03300219028001B2
:1000C000F4028001F4004200030C0C030D00013B1C
:1000D00002BD0F6C02038401C102D0019002D00165
:1000E00090002800200C0C030300017B03520F48F2
:1000F0000203A801BE02D0019002D00190005C0072
:10010000270C0C03060001F102E90F4003048002F2
:100110009B034002700340027000D0001A0C0C03D5
:100120000E00016002330F48020400027103200236
:100130005803200258007100130C0C030F00017BC0
:10014000025B0F8004042002740320025803200283
:1001500058004900140C0C03100001E102D20F7882
:10016000060410029A0320025803200258003100AE
:10017000140C0C03110001D502EE0F5003042002F1
:10018000710320025803200258009100120C0C0346
:100190001200021903530F400304180277032002D0
:1001A0005803200258008900180C0C031300013674
:1001B00002580F700804400205035001E00350018B
:1001C000E0006100140C0C031400012A02550F50CA
:1001D00005042001F4035001E0035001E0005A003F
:1001E000090C0C031500015E02BC0F58030430011A
:1001F000F4035001E0035001E00061000D0C0C031A
:100200001600016902D00F5803044001F5035001A4
:10021000E0035001E00069000E0C0C0317000179A7
:1002200002EC0F5005044001F8035001E0035001B7
:10023000E0006A000D0C0C031800016702570F481C
:10024000070390025702D0024002D0024000510042
:100250000A0C0C031900017902570F8806052002C9
:100260007404000258040002580090000B0C0C03A8
:100270006700016303660FB00204F00198040003F5
:100280000004000300002900110C0C031A0001E413
:1002900002580F88060540032604000300040003EB
:1002A000000091001A0C0C031B00023502BD0F88E0
:1002B000060530032604000300040003000081004B
:1002C0001A0C0C031C00024102D00F7003055003EE
:1002D0002104000300040003000097001A0C0C0323
:1002E0001D00025802EE0F600305200320040003E6
:1002F000000400030000A000190C0C031E000263A0
:1003000002F80F60030550032304000300040003F8
:1003100000009D001C0C0C03680002AF03520F602C
:100320000305600328040003000400030000BF006D
:10033000210C0C031F00021C02580F600305C803A8
:1003400084048003600480036000A000190C0C0387
:100350006900027F02BC0F600305C803900480039C
:10036000600480036000B700290C0C03230002A383
:1003700002EE0F80030640038404800360048003C0
:100380006000EF001D0C0C0324000303034F0F78E3
:10039000040610038E048003600480036000B6002E
:1003A000240C0C03250002AF02EF0F800305B003FD
:1003B000930480036604800366008000240C0C0311
:1003C0002600026A02940F800405E003A90480035A
:1003D000840480038400B0001C0C0C03270002CDB1
:1003E00002F90F600805C003AF0480038404800392
:1003F0008400BF001E0C0C03280001C202580F2805
:1004000005067202EE050002D0050002D000CC0005
:10041000110C0C032200023502EC0F800506A0022D
:10042000F3050002D0050002D000C000180C0C0338
:100430002A0001DA02580F200705A0031605000361
:100440000005000300004000090C0C032B0001DE36
:1004500002570280070680031E0500030005000303
:100460000000B100110C0C032C00023502BD0F80FE
:100470000706A00326050003000500030000C500D1
:10048000190C0C036A00024102D10F800706A00379
:1004900020050003000500030000C5001A0C0C0332
:1004A0006B00025B02ED0F800706A0032505000329
:1004B000000500030000C000180C0C032F0002AE62
:1004C00003500F880706B003290500030005000349
:1004D0000000C8001C0C0C03200001ED02570F2087
:1004E0000605A00337050003200500032000410096
:1004F0000B0C0C03300001ED02570F200606900391
:100500003F050003200500032000B900150C0C0373
:100510003100020802710F480306A00341050003E1
:10052000200500032000C1001A0C0C033200025900
:1005300002D00F880306B003420500032005000324
:100540002000C8001B0C0C033300027502EE0F8064
:100550000606A00346050003200500032000C00096
:100560001A0C0C03340002CC03510F880606B003AA
:100570004B050003200500032000C8001F0C0C03DE
:100580003500025802580F7003070803E8050003FE
:10059000C0050003C0012700210C0C03360002EE49
:1005A00002EE0F9003069003E8050003C005000368
:1005B000C000E000240C0C036E00035B03520FA08C
:1005C0000306C003F3050003C0050003C000CD000F
:1005D0002C0C0C033700028002580F70030698049D
:1005E0002A050004000500040000E700230C0C03AA
:1005F000380002CD02A00F70030660042B05000432
:10060000000500040000CF001E0C0C036C0002ED7E
:1006100002BB0FA00406A00430050004000500047E
:100620000000CE00270C0C03390002E802BC0F705A
:1006300005068E0428050004000500040000C6001D
:100640001F0C0C033A00030B02D00F880506C004F0
:100650003A050004000500040000CE00310C0C0334
:100660003B00032002EE0F64140698042A050004E0
:10067000000500040000E600230C0C033C00032CE2
:1006800002FA0F40080680042A0500040005000451
:10069000000110001D0C0C033D00039003520FA03D
:1006A0000306C00430050004000500040000CD006E
:1006B000290C0C033E0001DD02560F8F03070003D7
:1006C0001E055603000556030000C600150C0C035A
:1006D0002E00028702570F200607300438069004C8
:1006E0001A0690041A003F00120C0C034000028D01
:1006F00002580FB00608C004410690041A06900480
:100700001A0107001B0C0C034200033702ED0FB067
:100710000608E0044B0690041A0690041A0117001C
:10072000250C0C034400022B02570F200606400341
:100730009E05A0038405A003840040000E0C0C035A
:100740004600022F02570F9806077003A605A00364
:100750008405A0038400D800160C0C03480002C2D4
:1007600002EE0F9806079003AE05A0038405A003D0
:100770008400E8001E0C0C032900022B02580F20F5
:100780000506E0039E0640038406400384003F0004
:100790000F0C0C034700026902570F200606E00405
:1007A00005064003E8064003E8003F00110C0C0377
:1007B0004900026E02570FA8060850040E064003B7
:1007C000E8064003E800F7001A0C0C034A00031087
:1007D00002EC0FA80608700417064003E806400361
:1007E000E8010500230C0C034B0002E402570F2024
:1007F0000406E004D3064004B0064004B0003E0006
:100800001A0C0C034C0002EE02580FC004087004CE
:10081000E2064004B0064004B0011D002B0C0C039E
:100820004E00032D028A0FC003087004E206400444
:10083000B0064004B0011C002B0C0C034F00036BEE
:1008400002BC0FC003087004E2064004B006400476
:10085000B0011C002B0C0C03500003AA02EE0FC0C9
:1008600003087004E2064004B0064004B0011C0016
:100870002B0C0C035100031B02570FA8070870052F
:100880002F0640050006400500010500220C0C0360
:100890005200029A02570F200508200457078004CF
:1008A0003807800438004000130C0C03530002A0EA
:1008B00002580FC8050A1004600780043807800436
:1008C000380137001D0C0C03540002A302580F2CF2
:1008D0000508980465078004380780043800820002
:1008E000210C0C035700026601F40F2006082004B7
:1008F000CD078004B0078004B0003E00110C0C034B
:10090000550002E402580F2006082004D307800493
:10091000B0078004B0003D00170C0C034D0002EA44
:1009200002570FC8060A2004DD078004B0078004C0
:10093000B0013E00210C0C035600013B02580F3E53
:1009400009035A020D02D001E002D001E0002E009E
:100950001B0C0C030800013901F40F400503600271
:100960007102D0024002D00240003600240C0C0379
:100970005800016802580F40050390025802D00247
:100980004002D002400063000F0C0C036D000177A1
:1009900001F40F280507BC02EE050002D005000295
:1009A000D000CD00110C0C035900023301F40F2CC0
:1009B000050A500465078004380780043800850064
:1009C000230C0C035A00009D02580F3E02035A01EB
:1009D0000602D001E002D001E0002C000C0C0C0358
:1009E0005B00009D02580F7C0206B4010605A001C1
:1009F000E005A001E00058000C0C0C035C00009D19
:100A000002580FF8020D6801060B4001E00B40018F
:100A1000E000B0000C0C0C035D00015202580F2CDA
:100A200002089802320780043807800438008500E5
:100A30000C0C0C035E00009D01F40F3F01036001EC
:100A40003802D0024002D00240003800100C0C03E3
:100A50005F00009D01F40F7E0106C0013805A00271
:100A60004005A00240007000100C0C036000009DC7
:100A700001F40FFC010D8001380B4002400B4002D5
:100A80004000E000100C0C036100014202030FA8BB
:100A900016090002710780043807800438008400BA
:100AA0000C0C0C036200011901F40F2C020A500215
:100AB0003207800438078004380084000C0C0C03D3
:100AC000630002BD02570F200308A004A108000420
:100AD0008008000480003E00160C0C03640002CC69
:100AE00002580FD8030AC004AB08000480080004B1
:100AF00080015200200C0C036500017902580F8020
:100B000005069802740500025805000258005100BD
:100B1000140C0C036600FFFFFFFFFFFFFFFFFFFF4A
:100B2000FFFFFFFFFFFFFFFFFFFFFFFFFFFFFFFFD5
:100B3000FFFF908154E090A0D7F0908150E090A00A
:100B4000D6F0908188E090A0DAF09081D0E090A07B
:100B5000D1F0E490A0D8F090A0D8E0FFC394035067
:100B600037EF25E0049081D0F07A8179D1121ADC38
:100B700090A0D2E0FFC394065019A31219C41252D8
:100B8000B4FE121A14EEF0E412531C90A0D4121BFF
:100B9000A780DD121C5D80BF9081D0740DF0E490C1
:100BA0008154F0908020E020E203020D359080F522
:100BB000E090A0D9F012D1BD121C4FC394024003A3
:100BC000020C76121B5412D06390A0E3EEF0A3EF58
:100BD000F0E4FFFE12D1527F057E0012C628121BE0
:100BE000B412BDD7121B781257F11218C91212DCB9
:100BF00012BDD7C006C007121BBB12BDD7AC06ADD5
:100C000007D007D0061212BB402E74FFFFFE12124F
:100C1000647B017A8179DE12BDD7C006C007121B42
:100C2000BB12BDD7AC06AD07D007D0061212BB4031
:100C3000077F017E0012126490A0E3E0FEA3E0FFB4
:100C400012C6281218C91212DC12BDD7C006C0077E
:100C5000121BBB12BDD7AC06AD07D007D0061212CF
:100C6000CF9401EE648094805003020D2D90816E2C
:100C70007447F0020D2D121B54121BB412BDD71273
:100C80001B781257F1121C6412BDD7C006C0077B37
:100C9000017A80792E12BDD7AC06AD07D007D006F9
:100CA0001212CF9400EE648094804037908020E050
:100CB00030E637E054BFF0121C64128BA590A0E31D
:100CC000121A647A80792E128BA5AC06AD07121C1D
:100CD000641257F17A80792E90A0E3121AF012571D
:100CE000F18007908020E04440F01218C912C3EB55
:100CF0007B017A8179DE12BDD7C006C007121BBB0B
:100D000012BDD7AC06AD07D007D006C3ED9FFFECF0
:100D10009EFE120016D3EF9401EE64809480400D85
:100D200090816EE04440F01218C912C3EB90A0D934
:100D3000E09080F5F0121C6B128BA590A0DBEEF01A
:100D4000A3EFF090A0DB121A081257F190A0D6E0A2
:100D50004420908150F0121B1F12BDD790A0F1EEDD
:100D6000F0A3EFF01212907B017A817984128BA5A7
:100D700090A0E3EEF0A3EFF07A85799590A0E312CE
:100D800012A990A0DB1218B1121AABC004C005C0A2
:100D900006C00790A0E312186DD007D006D005D08A
:100DA00004124EE090A0DB602340211218B1121A09
:100DB000ABC004C005C006C00790A0E31218B1D0B4
:100DC00003D002D001D000124C4580271218B17B0D
:100DD000CD7ACC79CC783D124D3AC004C005C0061E
:100DE000C00790A0E31218B1D003D002D001D00008
:100DF000124C49121BFD12185CFFE4124F4DC00447
:100E0000C005C006C00790A0ED121A33124F52D091
:100E100003D002D001D000124D3AC004C005C00674
:100E2000C00790A0DB12186DD007D006D005D00403
:100E3000124E43C004C005C006C007121A30121873
:100E400073D007D006D005D0041219D490A0F512A3
:100E50001859FFC004C005C006C00790A0F51218BD
:100E60005FFBAA06A905A804D007D006D005D004C8
:100E7000C3EF121BF112191812C59C9081867401E0
:100E8000F09081887406F07F507E0012C3EB129DB3
:100E90001E50030211C7E490A0F1F0A3F090A0E56A
:100EA00012566C0000000090A0E912566C00000081
:100EB00000E490A0D8F09081887406F01219F9121D
:100EC00018E012C3EB121B1F12BDD790A0F2E02F47
:100ED000F090A0F1E03EF0908020E090A0E530E2BC
:100EE0001B121893C000C001C002C00312A618D084
:100EF00003D002D001D000121AB5801C121893C082
:100F000000C001C002C003121AF812BBFCD003D00B
:100F100002D001D000121BC290A0E5125660908151
:100F2000887402F090A0E9121893C000C001C002BA
:100F3000C003121AF812BBFCD003D002D001D000BB
:100F4000121BC290A0E9125660121C5DE0C394040B
:100F50005003020EB690A0F2E02402FF90A0F1E050
:100F60003400FE7C007D041253B7EEF0A3EFF09046
:100F7000A0E512185F240212193C121B8690A0E50E
:100F800012566090A0E912185F240212193C121B3D
:100F90008690A0E912566090A0DB12196790A0E934
:100FA00012185FFF12555390A0DF121996121BCF33
:100FB00012185FFF12555390A0E1121996121BCF21
:100FC00012185FFF12555390A0DDEEF0A3EFF07AF8
:100FD00085799EA31212A97A8579AB90A0E11219A6
:100FE000A512636F7BFF7A8579B890A0DD1219A7EF
:100FF00012636F12129090A0DB1218B1121AABC0DC
:1010000004C005C006C00790A0DF12186DD007D03D
:1010100006D005D004124C45121BFD90A0ED121A0B
:1010200033124F52C004C005C006C00790A0DD12A5
:1010300018B1D003D002D001D000124D3AC004C084
:1010400005C006C00790A0DB12186DD007D006D0EF
:1010500005D0041219D490A0E2E02FFF90A0E1E0A7
:101060003EAB07FA7D091218F440030210E0121992
:101070009D7D07121C721D12190340030210E0121D
:10108000199D7D05121C720D12190340030210E018
:101090007D031218F44002804712199DFF7C001254
:1010A00019014002803AC3E49FFFE49EFE12190634
:1010B000400590A0F3802A12199DFF7C007D031249
:1010C00053507D061253B7C3E49FFFE49EFE1219EE
:1010D000064002800B12199DFF7C007D061253B75B
:1010E000A3EEF0A3EFF090A0E1121A9290A0F4E02A
:1010F0009FFF90A0F3E09E90A0EFF0A3EFF01218F6
:101100005CFFE4124F4DC004C005C006C00790A0AC
:10111000EF121A33124F52D003D002D001D0001276
:101120004D3AC004C005C006C00790A0DD12186D7E
:10113000D007D006D005D004124E43C004C005C06D
:1011400006C007121A30121873D007D006D005D087
:10115000041219D490A0F512566090A3351218937A
:1011600090A0F512185FFF121AB512191812199DE6
:10117000FF7C007D021253B7ED4C604212185CFFF9
:10118000E4124F4DC004C005C006C007121A301249
:101190001873D007D006D005D004124E43C004C047
:1011A00005C006C007121B35124F52D003D002D023
:1011B00001D000121912121C41121B3580031218A3
:1011C000BA1257F112C59C90A0D7E0908154F090CC
:1011D0008186745FF090A0D6E0908150F0129D1E41
:1011E000402A7F507E0012C3EB121B1F12BDD79006
:1011F000A0F1EEF0A3EFF01218BA1257F17BFF7ACC
:101200008579C490A0F11219A712636F12189F126A
:1012100057F190A0DAE0908188F0E490A0D8F090A7
:10122000A0D8E0FFC394035032EF25E0049081D0B2
:10123000F0121ADC90A0D2E0FFC394065018121AE4
:1012400014E0FF90A0D31219C4EF12531C90A0D445
:10125000E4121BA780DE121C5D80C490A0D1E09038
:1012600081D0F02212D1527F057E0012C62890A3B1
:101270003EE0FEA3E0FBAA06E4F9F87F807E387D1D
:1012800001FC128779EF2401FFE43EFE12C3EB223A
:101290007BFF7A85798590A0F1E0FFA3E090A0FC28
:1012A000CFF0A3EFF012636F227BFFE0FFA3E0908B
:1012B000A0FCCFF0A3EFF012636F22C3ED9FFFEC11
:1012C0009EFE120016D3EF9401EE6480948022C338
:1012D000ED9FFFEC9EFE120016D3EF2212C3EB7BB4
:1012E000017A8179DE2290A0B5EEF0A3EFF0A3EDB4
:1012F000F0A3EBF01292609080F5E090A0D3F0E4C0
:101300009080F5F0908150E04420F07B017A807964
:1013100036128BA590A0C5121A647A807932128B8E
:10132000A590A0BB121A647A8179B5128BA5EF241F
:1013300001FFE43E90A0BD121C0920E203C380011E
:10134000D3920990A0B7121BDF1218761219CD1292
:101350001B8F90A0B7E0B4640C90A0CB12566C3FEA
:10136000800000803690A0B91218B17B9A7A797902
:10137000067845124EE0600C400A90A0B97408F05F
:10138000A37467F090A0B91218B17B007A8079F449
:101390007844124E4390A0CB125660121BDC1218F8
:1013A00076E4FFFE7DC87C42124E4390A0CF1256D9
:1013B00060121A4A121893121A55E4FFFE7DF57C4A
:1013C0004490A0CB121893121AFF90A0C3E0FCA384
:1013D000E0FDC3EC94084003021471121A6CC004BF
:1013E000C005C006C00790A0BF1218B1D003D0023C
:1013F000D001D000121947C004C005C006C0079034
:10140000A37212185FFFE4124F4D121876D007D066
:1014100006D005D004124E43C004C005C006C00764
:1014200090A0BB12186DD007D006D005D004124E84
:101430004390A0C7121AD090A0C712189312191285
:1014400030090912185C121B981219187F807EF05F
:101450007DFA7C0290A335121893D31256095011CD
:1014600090A0C4E0240AF090A0C3E03400F002137E
:10147000CAD390A0C4E0940090A0C3E09408400CAC
:10148000A3E024F8F090A0C3E034FFF07F007EB426
:101490007DC47C0490A335121893D31256095003CF
:1014A0000215777F007E807DF47C4490A0CB1218DB
:1014B00093121AFFFDAC061218727F007E507D4316
:1014C0007C49124E43C004C005C006C00790A0BBB3
:1014D0001218B1D003D002D001D000124D3AC0048E
:1014E000C005C006C00790A33C12186DD007D006F7
:1014F000D005D00412197B121A5B90A0BD121AC23B
:101500007804125641C006C00790A0BB121967D0DC
:1015100007D006121936780412561A121B445020AE
:1015200090A0BBE0FEA3E0FF7C037D1C12572EC001
:1015300006C007121966D007D006125553121A5B5F
:10154000121A4A121893124D3AC004C005C006C0C0
:101550000790A0BF12186DD007D006D005D0041296
:101560004EE060134011121A4A121893121A5512C3
:10157000926012C942C20A90A0BF121A081257F113
:10158000121C6B7D007C031257F190A00BE06407E6
:101590007004A3E06480702890A00DE064047004DF
:1015A000A3E06438701A908020E020E2047F00807D
:1015B000027F01EF600A1218AEE4FBFA79E0803393
:1015C00090A00BE064077004A3E06480702990A0F1
:1015D0000DE064047004A3E06438701B908020E088
:1015E00020E2047F0180027F00EF600B1218AEE45E
:1015F000FBFAF97840800B1218AE7BCD7ACC79CC0F
:10160000783D124C49C004C005C006C00790A0BF79
:101610001218B1D003D002D001D000121947C00473
:10162000C005C006C00790A37212185FFFE4124FF6
:101630004D121876D007D006D005D004124E43C004
:1016400004C005C006C00790A0BB12186DD007D01B
:1016500006D005D004124E4390A0C712566012184F
:101660005CFF90A0D4121AD090A0C7121893121940
:10167000123009119081887410F012185C121B98B6
:101680001219188005E4908188F090A0C3E0FEA3B1
:10169000E0FF7B017AA079B5122A1712C59C90A0B1
:1016A000D412185FFF1219187F0A7E0012C3EB12C2
:1016B0009D1E500302183C300908121B0E1219EA35
:1016C0008035121B1F128BA5EE540F90A0B9F0A30A
:1016D000EFF090A0C3121A9290A0BAE09FFF90A0E2
:1016E000B9E09EFE120016121C37500B90A0B9E014
:1016F000FFA3E0CF121B0612185C121C30FBFA7914
:10170000207841124D3AC004C005C006C00790A021
:10171000C312186DD007D006D005D004124E43C0B6
:1017200004C005C006C00790A33E12186DD007D0B4
:1017300006D005D00412197B121B44500A90A0C198
:101740007403F0A3741CF07A81795B90A0C1121A23
:10175000F01257F17B017A8179627D0C7C0012577F
:10176000F1121A4A121893124D3AC004C005C0066D
:10177000C00790A0BF12186DD007D006D005D004C6
:10178000124C45E4FBFAF97840121C567940784136
:10179000121984121B8F7B017A81796F7D0C7C007A
:1017A0001257F1121C4190A0C4E02402FD90A0C386
:1017B000E03400FC1257F190A0BFE064037002A374
:1017C000E06006121B0E1219EA90A0B7E0FCB464A8
:1017D00006A3E064646065E4124F5712187612198C
:1017E000CD121B8F90A0B91218E81257F1121C12DB
:1017F00034FCC313FEEF132430FFE43EF0A3EFF0FC
:1018000090A0B912198A1257F1121BDC1218767DBA
:10181000961219CF90A0B9EE121B667A81797112D7
:1018200057F1121C1234FDC313FEEF13240CFFE416
:101830003EFE121B667A8179621257F17B017A8132
:1018400079647D007C031257F190A0D3E09080F57D
:10185000F0D20AA20A2290A0E112566090A335E0CD
:10186000FCA3E0FDA3E0FEA3E02290A0AFE0FCA378
:10187000E0FDE4124F52A804A905AA06AB07221204
:101880004E4390A0E512566090A0E57F007E1B7D40
:10189000377C4DE0F8A3E0F9A3E0FAA3E0FB229047
:1018A000A04B7B017A817964E0FCA3E0FD2290A04B
:1018B000C3E0FCA3E0FDE4024F5290A0F17B017A6B
:1018C00081795EE0FCA3E0FD2290A33EE0FEA3E070
:1018D000FBAA06E4F9F87F807E387D01FC12877947
:1018E000EF2401FFE43EFE227B017A817975E0FC62
:1018F000A3E0FD2290A0F1E0FEA3E0FF7C001253E4
:10190000507D061253B7D3EB9FEE6480F8EA6480F3
:101910009822124D3A124F8B90A3350256607B01EC
:101920007A817971E0FCA3E0FD227B017A81795B09
:10193000E0FCA3E0FD22125553EF2408FFE43EFE35
:10194000E43DFDE43CFC22124D3A79807845E4FB0D
:10195000FA024D3A90A067E0FCA3E0FD2290A04976
:10196000E0FCA3E0FD22A3E0FEA3E0FBAA06E4F96D
:10197000F82290A0B7E0FCA3E0FD22124E43E4FB66
:10198000FAF9783F124C49024F8B7B017A817966D4
:10199000E0FCA3E0FD22AF03EAF0A3EFF090A0F19A
:1019A000E0FEA3E0227BFFE0FFA3E090A0FCCFF0ED
:1019B000A3EFF022780512561AE4124F4D90A0E5DD
:1019C0002290A0F9E0FBA3E0FAA3E0F9227DC8E4AD
:1019D000FFFE7C47124E43024F8B908150E0FF90F8
:1019E000A0ADE4F0A3EFF090A0ADA3E054DF9081B0
:1019F00050F02290A0F912566090A33EE0FCA3E0C4
:101A0000FD7E277F100253627B017A817964E0FCBE
:101A1000A3E0FD2290A0D8E075F006A424BFF582D3
:101A2000E434A0F583E5822FF582E43583F5832243
:101A300090A0F1E0FCA3E0FDEC2290A055E0FFA314
:101A4000E090A0B7CFF0A3EFF022E4FFFE7D407C52
:101A50004490A0CF22124D3A124F8B90A0BFEEF0CF
:101A6000A3EFF022EEF0A3EFF07B0122E4124F523D
:101A70007BCD7ACC79CC78BD024C497B0190A067B4
:101A8000E0FEA3E0FF90A066E02FFD90A065E03EA1
:101A9000FC22E0FEA3E0FFC32290A0B5EEF0A3EF8E
:101AA000F090A05FE0FCA3E0FDD3227466783FFBDA
:101AB000FAF9024D3AEB2FFFEA3EFEE93DFDE83C24
:101AC000FC22E0FEA3E0FFA3E0FCA3E0FD02572E12
:101AD0001256607F007E1B7D377C4D2290A0D37410
:101AE00001F0A37481F0A374D1F0E490A0D2F022AD
:101AF0007B01E0FCA3E0FD227B017A81798922123F
:101B00004D3A124F8BEE90A0C3F0A3EFF0229081DC
:101B100050E0FF90A0B9E4F0A3EFF090A0B9227BD1
:101B2000017A8179822290A0C3E0FEA3E0FFAD0399
:101B3000AC0202536290A0F2E024FFFD90A0F1E01D
:101B400034FFFC2290A0C1EEF0A3EFF0C3941CEE92
:101B5000940322F090816E7407F0229FFFE09EC3F1
:101B600013FEEF13FF22F0FCA3EFF0FD7B0122EB4D
:101B7000F0A3EAF0A3E9F022EEC313FCEF13FD7B20
:101B8000017A81794E227B04E4FAF9F802555390E8
:101B9000A0B9EEF0A3EFF022FF7801025641EE90DB
:101BA000A0B3F0A3EFF02275F0011253ED90A0D294
:101BB000E004F0227B017A81794C227B017A8179E1
:101BC000DC22EB2FFFEA3EFEE93DFDE83CFC22FB78
:101BD000AA06EA3395E0F9F890A0E52290A0B8E0D3
:101BE000FCE4024F57E0FCA3E0FDC3EF9DFFEE9C39
:101BF000229BFFEE9AFEED99FDEC98FC22124F8B92
:101C000090A0EDEEF0A3EFF022F0EFA3F090802093
:101C1000E02290A0BAE02400FF90A0B9E0227B016E
:101C2000E0FCA3E0FD22908101E0FE908065E022CF
:101C3000FFE4124F4DE422C3EF9405EE64809480DC
:101C4000227B017A81795E227B017A80793222902F
:101C50008024E0540322124E43E4FBFA2290A0D8E1
:101C6000E004F0227B017A807930227B017A81794D
:101C70007122FF7C0002535090A0ABEEF0A3EFF076
:101C8000908150E04420121B537B017A80793612F8
:101C90008BA590A0B9121A647A807932128BA59024
:101CA000A0AFEEF0A3EFF0D3E0940090A0AFE094EB
:101CB00004400B90A0B9E094055003021E8012B8B6
:101CC0004890A0B1EEF0EF121C0B20E204C2098094
:101CD00002D20990A04BE0FFA3E0CF121B9F121A83
:101CE0003A90A059E0FEA3E0FF121972C39FEC9E48
:101CF0004003021D87121A6CC004C005C006C0074D
:101D000090A0B31218B1D003D002D001D0001219A4
:101D100047C004C005C006C00790A37212185FFF39
:101D2000E4124F4D121876D007D006D005D0041219
:101D30004E43C004C005C006C00712186AD007D0C1
:101D400006D005D004124E4390A0BB12566090A05E
:101D5000BB12188B12191230090912185C121B9849
:101D600012191890A04D12185FFF90A33512189306
:101D7000D3125609501190A0B8E02408F090A0B7F3
:101D8000E03400F0021CE190A059E0FEA3E0FFD394
:101D900090A0B8E09F90A0B7E09E400CA3E024F88C
:101DA000F090A0B7E034FFF090A05112185FFF90C0
:101DB000A335121893D31256095003021E88121A23
:101DC0003A90A05112185F121C30FBFA79C8784281
:101DD000124E43C004C005C006C00790A0B7121839
:101DE0006DD007D006D005D004124E43C004C00504
:101DF000C006C00790A0AF1218B1D003D002D00126
:101E0000D000124D3AC004C005C006C00790A33CE4
:101E100012186DD007D006D005D00412197B121B02
:101E20009E90A0B1121AC27804125641C006C00793
:101E300090A0AF121967D007D00612193678041295
:101E4000561A121A999FEC9E401C90A0AFE0FEA378
:101E5000E0FF12572EC006C007121966D007D00641
:101E6000125553121B9E90A04BE0FEA3E0FFD390AF
:101E7000A0B4E09F90A0B3E09E400DEEF0A3EFF081
:101E800012926012C942C32290A0B31218A2125734
:101E9000F190A0B312191E1257F190A0B71218B109
:101EA000121A70C004C005C006C00790A0B3121873
:101EB000B1D003D002D001D000121947C004C00530
:101EC000C006C00790A37212185FFFE4124F4D12B4
:101ED0001876D007D006D005D004124E43C004C0F7
:101EE00005C006C00712186AD007D006D005D00476
:101EF000124E4390A0BB121AD090A0BB121893129E
:101F000019123009119081887410F012185C121B9C
:101F1000981219188005E4908188F090A0ABE0FE3B
:101F2000A3E0FF7B017AA079B7122A1712C59C7F24
:101F3000507E0012C3EB7BFF7A85797312636F7A50
:101F400085797690A0B71219A512636F129D1E5065
:101F5000030220413009051219DA8030121B1F12CA
:101F60008BA5EE540F90A0ADF0A3EFF090A0B712A8
:101F70001A9290A0AEE09FFF90A0ADE09EFE1200EE
:101F800016121C37500690A0AD121A3D12185CFFB5
:101F9000E4124F4D7920784112194EC004C005C09B
:101FA00006C00790A0B712186DD007D006D005D094
:101FB00004124E43C004C005C006C00790A33E12E1
:101FC000186DD007D006D005D00412197B121A99CB
:101FD0009FEC9E400890A0B5ECF0A3EDF090A0B56A
:101FE00012192A1257F17A817962121A7B1257F16B
:101FF00090A0B3121A9290A04CE090A04B121B5BE1
:1020000012195490A066E02DFD90A065E03CCD2F04
:10201000FFED3EFE90A0AD121B667A81796F1257DC
:10202000F1121C411219721257F190A04BE0FEA35D
:10203000E0FF90A0B3E06E7003A3E06F600312199D
:10204000DA12189F1257F11242BE129D1E4003125F
:102050000B32D32212CC4C12385A12D207EF64053D
:10206000700302229474FF90A0B1F0A3F090A0B787
:1020700012566CFFFFFFFF12935B90A0AEEFF0C211
:1020800008E490A0ABF012981CF47003E493F47091
:1020900003022258EF1298341297F312C2425003EF
:1020A00002224F129841FC740193FD90A009E0FABE
:1020B000A3E0FBD39DEA9C403275F01CEF1297EA37
:1020C000C3EB9FFFEA9EFE120016D390A0B2E09FE2
:1020D00090A0B1E09E40141297E31223F290A0B1B9
:1020E000EEF0A3EFF090A0ABE0A3F01223B790A026
:1020F000ABE0FD75F01CA4243DF582E5F03400F55D
:1021000083E493FBD3EF9B7480F86E984003022224
:102110004FED1298781297F31223E1129866243E3D
:10212000F582E5F03400F583E493FDD3EF9D7480F0
:10213000F86E98400302224F12D207BF021A12987B
:1021400066242AF582E5F03400F583E493FF90A03D
:1021500004E05F700302224F90A009E0FFA3E0902B
:10216000A0AFCFF0A3EFF012D030500D90A0B0E0B0
:1021700025E0F090A0AFE033F0129841FC74019399
:10218000FDD390A0B0E09D90A0AFE09C5003022250
:102190004FD208EF1298781297F31223E1C006C0CD
:1021A000071223B7D0E02FFFD0E03EFE3395E0FDCD
:1021B00012989D129857C000C001C002C003129728
:1021C000E31223F2EF7802C333CE33CED8F9FFEE19
:1021D0003395E0FDFCD003D002D001D000EB2FFFFF
:1021E000EA3EFEE93DFDE83C12989D90A0AEE0FF7E
:1021F00090A006E0C39FFFE49400FE120016EE33A9
:1022000095E0FDFCC004C005C006C007E47F64FE85
:10221000FDFC1298571254C8D003D002D001D00050
:10222000EF2BFFEE3AFEED39FDEC3812989D90A0B1
:10223000B71298A4129857C3125609501290A0B31F
:102240001298A4A312566090A0ABE090A0ADF090BD
:10225000A0ABE004F002208630081590A0ADE0FFAE
:102260001299781298961298B050030223B6801EE5
:1022700090A0ACE0FF12997890A02BE0FF74FFF0E3
:10228000A3EFF01298961298B050030223B612985A
:1022900096028E4A12B5BB90A00BEEF0A3EFF0129F
:1022A000B3D190A00DEEF0A3EFF090A00BE0FFA350
:1022B000E090A00FCFF0A3EFF090A00DE0FFA3E01F
:1022C00090A011CFF0A3EFF0E4A3F0A3F0A304F0EB
:1022D000A374E0F090A013E0FFA3E090A01ACFF069
:1022E000A3EFF090A015E0FFA3E090A01CCFF0A317
:1022F000EFF090A02B74FFF0A3E4F090A0ABF012ED
:10230000981CF47003E493F470030223B675F01C78
:10231000EFA42435F582E5F034001297F3C390A0C2
:102320000CE090A00B122403D3EF9405EE6480948C
:1023300080507A1298662437F582E5F034001297BF
:10234000F3C390A00EE090A00D122403D3EF9406E7
:10235000EE6480948050561298662426F582E5F04B
:1023600034001297F3C390A001E090A00012240C57
:10237000503B12986612987C1297F3C390A003E02A
:1023800090A00212240C502590A0ABE0FF75F01C29
:102390001297FD12984AFF74019390A00DCFF0A3FD
:1023A000EFF090A0ABE01298341298852290A0AB89
:1023B000E004F00222FF2290A0ABE075F01CA42400
:1023C00026F582E5F03400F583E493FE740193FF73
:1023D000C390A001E09FFF90A000E09EFE120016B7
:1023E00022C390A003E09FFF90A002E09EFE120097
:1023F0001622C390A00AE09FFF90A009E09EFE1263
:102400000016229FFFE09EFE120016229FFFE09E14
:10241000FE120016C3EF940AEE648094802290A00E
:102420008BE0600302252E12C0B8BE020BBFD0089D
:102430009080F37436022740BE031CBF201990A081
:102440000DE0B40212A3E0B4580D12C0AA400890E7
:1024500080F3746C02274090A00BE0B4031FA3E04C
:10246000B4201AA3E0B40215A3E0B4581012C0D8E7
:1024700012C0B140089080F374FF02274012C0B828
:10248000B4001BEEB40417A3E0B40312A3E0B4003D
:102490000D12C0AA40089080F37486022740E4B56C
:1024A0000720EEB4041C90A00DE0B40315A3E0B423
:1024B000001012C0D812C0B140089080F3745502C9
:1024C00026AB90A00BE0B40220A3E0B4801BA3E0F5
:1024D000B40116A3E0B4E011C312C0D912C0B150C8
:1024E000089080F374340226F812C0B8BE021ABFF6
:1024F0008017A3E0B40112A3E0B4E00D12C0AA401B
:10250000089080F37486022740BE021FBF801C9093
:10251000A00DE0B40115A3E0B4E01012C0D812C0C1
:10252000B140089080F374BF02274002274812C0D0
:10253000B8BE0214BFD011A3E0B4020CA3E0B440B3
:10254000079080F3747B8027BE072CBF802990A062
:102550000DE0B40422A3E0B4381DC312C0D112C0F0
:10256000B15014908020E030E20D9080F37403F0BD
:102570009080F4740DF02290A00BE0B40726A3E045
:10258000B48021A3E0B4041CA3E0B4381712C0D077
:1025900012C0B1400F908020E020E2089080F374D8
:1025A0009802274D12C0B8BE0724BF8021A3E0B413
:1025B000041CA3E0B4381712C0D012C0B1500F9061
:1025C0008020E020E2089080F3740202274DE4B5F9
:1025D0000727EEB4052390A00DE0B4021CA3E0B4DD
:1025E000D01712C0D012C0B1400F908020E020E27E
:1025F000089080F3749B02274D90A00BE0B4022654
:10260000A3E0B4D021A3E0B4011CA3E0B4E017120E
:10261000C0D012C0B1400F908020E020E20890802E
:10262000F374650226F812C0B8BE031FBF201CA3B6
:10263000E0B40217A3E0B4581212C0C1400D12C09A
:10264000E050089080F374FF022740BE031CBF20B7
:102650001990A00DE0B40212A3E0B4580D12C0AA64
:1026600040089080F3747202274090A00BE0B402FF
:1026700017A3E0B4D012A3E0B4010DA3E0B4900816
:102680009080F374BF02274012C0B8B40025EEB4A6
:102690000421A3E0B4031CA3E0B4001712C0C1409E
:1026A0001212C0E0500D9080F37452F09080F474D8
:1026B00012F022E4B5071DEEB4041990A00DE0B4A9
:1026C0000312A3E0B4000D12C0AA40089080F37476
:1026D0008A02274090A00BE0B40225A3E0B480203A
:1026E000A3E0B4011BA3E0B4E016C312C0D912C02A
:1026F000B1500D9080F37436F09080F47410F02295
:1027000012C0B8BE021EBF801BA3E0B40116A3E036
:10271000B4E01112C0C1400C12C0E050079080F329
:102720007481801CBE0221BF801E90A00DE0B40108
:1027300017A3E0B4E01212C0AA400D9080F37468B1
:10274000F09080F47413F0229080F374BFF09080C6
:10275000F4740FF0227BFF7A8B794512B75190F019
:1027600024E054FEF09083357444F0908306E090AA
:10277000A0B2F0908310E090A0B3F0908311E090AD
:10278000A0B4F0908336E090A0B5F0908336E0548A
:10279000DF12B787740CF090833A7460122A0E909F
:1027A00081ADE020E0030229C39083117422F090F0
:1027B00083107413F0E490A0AEF090A0AEE0FFC3DD
:1027C000940340030229C3EF908B309390A0BBF099
:1027D000908330F0E490A0AFF090A0AFE0FF25E050
:1027E0002433F582E4348BF583E49390A0BCF0EFBE
:1027F00025E02434F582E4348BF583E49390A0BD86
:10280000F090A0BCE0908339F090A0BDE090833AB6
:10281000F0E490A0B0F090A0B0E0FF25E0243BF5FC
:1028200082E4348BF583E49390A0BEF0EF25E0249E
:102830003CF582E4348BF583E49390A0BFF090A044
:10284000BEE0908332F090A0BFE0908337F0E49038
:10285000A0C0F074FFA3F0A3F0E490A0B1F090A0AA
:10286000B1E0FFC39403400302293074C32F12B7B1
:1028700043E4F0908306EFF0908309E04401F09088
:1028800083107413F0128B5090A0B9EEF0A3EFF008
:102890007F017E0012C3EB908310E020E312128BC5
:1028A0005090A0B912B75EC3EF941EEE940040E0C2
:1028B0009081ADE020E01112B73512B76B90A0B057
:1028C000F090A0AFF0022927908308E054077051E0
:1028D00090A0B604F0A37483F0A37417F0E4FF9003
:1028E000A0B6E0FBA3E0FAA3E0F91252B4FD90A079
:1028F000C2E02DF090A0C1E03400F090A0B6A3E4B7
:1029000075F001125403A9F0FA1252B4700C12B708
:102910003DE004F090A0C0E004F00FEFB405C080EB
:102920000612B73512B76B90A0B1E004F002285E32
:1029300090A0CBE0FF90A0C0E0D39F401790A0C331
:10294000E0D39400400EA3E0D394004007A3E0D36B
:102950009400502390A0CCE0FEA3E0FFC390A0C25F
:10296000E09F90A0C1E09E501190A0CEE06008A32F
:10297000E06004A3E0700312B74B90A0CEE0C394D4
:1029800001401DA3E094014017A3E09401401112FF
:10299000B74B90A0B074EEF090A0AFF090A0AEF066
:1029A00090A0B012B77F500302281690A0AFE004A9
:1029B000F0E0C3940450030227D990A0AEE004F0E5
:1029C0000227BA90A0C7E0908339F090A0C8E090A9
:1029D000833AF090A0C6E0908330F090A0C9E090D8
:1029E0008332F090A0CAE0908337122A0E90A0B2F2
:1029F000E0908306F090A0B3E0908310F090A0B434
:102A0000E0908311F090A0B5E0908336F022F07F43
:102A1000017E0012C3EB2290A0D8EEF0A3EFF0A34A
:102A2000121B6FC20B121C48128BA590A0E9121A40
:102A3000647A817971128BA590A0EBEEF0A3EFF090
:102A400090A0EB121A9290A0EAE09F90A0E9E09E7D
:102A50005003022CBC121C4F94024003022B5890CE
:102A6000A0D9E024CEFD90A0D8E034FFFCE4124FC2
:102A70005212194AC004C005C006C00790A37212C2
:102A8000185FFFE4124F4D121876D007D006D0051C
:102A9000D00412187F124D3A124F8B90A0DD1256BF
:102AA0006090A0D9E02432FD90A0D8E03400FCE48E
:102AB000124F5212194AC004C005C006C00790A3A5
:102AC0007212185FFFE4124F4D121876D007D0062D
:102AD000D005D00412187F124D3A124F8B1218569F
:102AE000241012193C1219B412566090A0DD12186D
:102AF0005FFF1219B9121893124C45C004C005C0EB
:102B000006C00712185CFFE4124F4D121876D0076A
:102B1000D006D005D004124EE060025003022BFD17
:102B200090A0E112185FFF1219B9121893124C49C4
:102B3000C004C005C006C00712185CFFE4124F4D68
:102B4000121876D007D006D005D004124EE040030C
:102B5000022BFDD20B022BFD7B017A86793A128B78
:102B6000A5EE541FFEE4FCFD90A0E112566090A378
:102B70003CE0FEA3E0FFE4FCFD90A0E112189312FC
:102B800054C8E47B64FAF9F81254C8121856241099
:102B900012193C1219B412566090A0E112185FFF8E
:102BA0001219B9121893124C45C004C005C006C0D2
:102BB0000712185CFFE4124F4D121876D007D006AA
:102BC000D005D004124EE06034403290A0E11218DB
:102BD0005FFF1219B9121893124C49C004C005C006
:102BE00006C00712185CFFE4124F4D121876D0078A
:102BF000D006D005D004124EE05002D20B200B03B9
:102C0000022CBC90A0E112185FFFE4124F4D7B52E2
:102C10007A497985783F12191290A05112185FFFF6
:102C200090A335121893D3125609400A90A051125E
:102C3000185FFF121918908020E090A33530E20B46
:102C400012185FFF780112561A800412185FFF12E3
:102C500019B912566090A37212185FFF1219B912B7
:102C60001893124D3AC004C005C006C00790A0E9F1
:102C70001218B1D003D002D001D000124D3AC004D6
:102C8000C005C006C00790A0EB12186DD007D00693
:102C9000D005D004121C5679807845124E437B0033
:102CA0007A1B7937784B121C56798078411219D4E7
:102CB00090A0DA1219C4EE8FF012547C2290A0BEBC
:102CC00012566090A0BEE0FCA3E0FDA3E0FEA3E0EE
:102CD000FF22E4FEFDFC90A0CDE0F8A3E0F9A3E024
:102CE000FAA3E0FB1254C890A0C5E0F8A3E0F9A352
:102CF000E0FAA3E0FB22E49080F8F090A0BAE0753F
:102D0000F003A40490A0B7F090A0BD7401F0A374E8
:102D100080F0A37400F090A0B7E0FF90A0BEE48F15
:102D2000F00253ED90A0C3E0FCA3E0FDC3EF9DFFD4
:102D3000EE9CFEC3EF9464EE940022EE5407F0A3E1
:102D4000EFF07B0122FBE0FFC374FF9FFFE49400E0
:102D5000FE7C007D901253507DFF125362EF246081
:102D60002290A0BCE0FFE4FCFDFEEB2FFFEE3AFE5C
:102D7000ED39FDEC38FC90A0C502566074F09BFE66
:102D8000C3EF9EF090A0B774FFF022FF90A0BDE0CB
:102D9000FBA3E0FAA3E0F922E0FCA3E0FDC39FEC73
:102DA0009E2290F00A7455F022EB2FFFEA3EFEEDD2
:102DB00039FDEC38FC02566090A0BA12566090A320
:102DC0006EE090A0B2F090A371E090A0B3F022E08A
:102DD000FEA3E0FFC322E0FEA3E0FF7C007D0A0229
:102DE00053629BFFEE9AFEED99FDEC98FC02566053
:102DF000EE540FF0A3EFF022E0FCA3E0FDC3EF9D43
:102E0000FFEE9C222DFDE03CCDC39FFFED9EFE908A
:102E1000A0CFF0A3EFF02290A0B8E0FEA3E0FF2245
:102E200090A36FE0C394642290A0C7025660C39041
:102E3000A0D0E09DFF90A0CFE09CFE2290A0B6E045
:102E4000FEA3E0FF227B017A8079D722908106746D
:102E500042F022A3E0FCA3E0FD22FDE43EFCEBC334
:102E60009DE49C22EE540FF0A3EFF022EFF090A02F
:102E7000C2740AF02212566090A0D4E024FC543FA1
:102E800022A3F090A0B2E0FCA3E0FD229080F9F034
:102E90007B017A8079FC2290A0C7E09F90A0C6E0D9
:102EA0009E227B017A80793222E0FEA3E0FFED9F33
:102EB000EC9E227B017A80793622FFE4F0A3EFF0CA
:102EC00022543F90A0B1F090A37022E4FCFD025682
:102ED00060E0FCA3E0FDE4024F5212D24F90A0C08C
:102EE000EFF012D25590A0C1EFF012D25B90A0C2C9
:102EF000EFF09080FA74F8F0122EA2128BA590A039
:102F0000CD122ECBE490A0BAF090A0BAE0FFC3940B
:102F10000340030230C5EF122CFF122D8C1252B465
:102F200090A0B9F090A0B9E0FDD394075003022F10
:102F3000D8122CF6122D8CED1230C7122DA2129D34
:102F40001E5004D21680139080F8E020E704D209C6
:102F50008008128B50122D2440E1200902D2163035
:102F6000160302302CE490A0B8F090A0C912566C61
:102F700000000000E490A0B7F090A0B7E0FFC39479
:102F8000085045EF122E8C128BA5E4FCFD122D7615
:102F900090A0C5122CC67808125641122D7690804A
:102FA000FBE090A0BCF0122CE7122D617F03122CE5
:102FB000D2D3125609400890A0B874FFF08009904F
:102FC000A0B7E004F0022F7990A0B8E0700A90A0BA
:102FD000B9E024F8F0022F2490A0B9E07005D216D1
:102FE00002302CE490A0BBF090A0BBE0FDC3941095
:102FF0004003023093122CF690A0B9E0C39D122D2D
:103000008BEF1230C7122DA2129D1E5004D21680D3
:10301000139080F8E020E704D2098008128B501248
:103020002D2440E1200902D21630161A90A0C0E0EB
:10303000FF12D22B90A0C1E0FF12D23190A0C2E0CB
:10304000FF12D237C322E490A0B8F090A0C9125664
:103050006C000000007407122E8C128BA5E4FCFD9E
:10306000122D7690A0C5122CC67808125641122D4A
:10307000769080FBE090A0BCF0122CE7122D617FCF
:103080000A122CD2D3125609500990A0BBE004F0CA
:10309000022FE890A0BAE075F003A40490A0B7F066
:1030A00090A0BBE0FF90A0B9E0C39F90A0B8122D04
:1030B0000790A0B8E0122D8BEF12531C90A0BAE03D
:1030C00004F0022F09D32212531C90A0BAE0F4049A
:1030D00075F008A4249090A0B7F09080F8F0C20991
:1030E000128B5090A0C3EEF0A3EFF02290A0B1EFAE
:1030F000F090A0BB12566C0000000090A0BF1256CA
:103100006C0000000090A0C312566C0000000090FC
:10311000A0CB12566CFFFFFFFF9080D9E0543F9088
:10312000A0B2F0122E4C90A0B37401F090A0B1E0C8
:10313000FF90A0B3E0C39F40030232D9122E20506B
:1031400007E0FF04F0125885E490A0B6F0128B500F
:1031500090A0CFEEF0A3EFF0122DA2129D1E500210
:103160008020908106E020E10890A0B67401F080F4
:103170000B128B5090A0CF122D2740DC90A0B6E010
:103180007004D216C32290A0B3E0FF90A0B2E02F4B
:103190001232E3122E4C7B017A817915128BA5E451
:1031A000FCFD122E2890A0C7122CC6781012564192
:1031B000122E2890A0C7122CEAC000C001C002C085
:1031C000037B017A817913128BA5E4FCFDD003D037
:1031D00002D001D00090A0C7122DA990A0B6E01493
:1031E000543F90A0B5F090A0BB122CC6A31256601D
:1031F00090A0B7122CC6A312566090A0C7122CC67E
:1032000090A0B712566090A0BB122CC6780112563F
:103210001AC004C005C006C00790A0B7122CC6781B
:103220000212561AD003D002D001D000EF2BFFEECD
:103230003AFEED39FDEC38FCC004C005C006C007FD
:1032400090A0BF122CC6780212561AD003D002D01A
:1032500001D000EB2FFFEA3EFEE93DFDE83CFC1209
:103260002E2890A0B3E0C3940450030232C490A06F
:10327000C3122CC6A3122CEAD312560990A0C3E0A5
:10328000400D122CEB122E53A3E0FEA3E080091296
:103290002CC7A3122CEAC3EF90A0C3122DE290A07A
:1032A000CB122CC690A0C3122CEAC312560950149C
:1032B00090A0B5E090A0B4F090A0C3122CC690A04E
:1032C000CB12566090A0C7122CC690A0C3125660B5
:1032D00090A0B3E004F002312C90A0B4E0141232BC
:1032E000E3D322543FFF90A0B6F012D2252290A043
:1032F000AEEFF0A3EDF0A312BE347F007E1B7D374E
:103300007C4B12BE4C7E0412BE21C3125609400BE8
:1033100090A0B8740AF0A3740480147E0112BE2138
:10332000C312560990A0B8400C7408F0A37401F0C1
:10333000A3E4F0800A7404F0A3E4F0A37410F09006
:10334000A0B9E0FCA3E0FDE4124F5212BE437F009F
:103350007E1B7D377C4B124E43C004C005C006C0A7
:103360000790A0B012BE34D007D006D005D004120A
:10337000BE4C90A0B8E0C3940F502AE47FFFFE1229
:10338000BE23125609401E90A0B4E0FCA3E0FDA3AA
:10339000E0FEA3E0FF780112561A12BE5B90A0B8BF
:1033A000E004F080CD90A0B8E0FF1313543FFDEF90
:1033B0005403FE90A0AEE0FB64017044EE25E0FEF5
:1033C00090807EE054F990A0B8F0AF06E04F908076
:1033D0007EF090807FE054FC90A0B8F0E04410AE06
:1033E000054E90807FF090A0B4A3A3A3E0908074DA
:1033F000F0908075E0F0908C80E04440F00234D78B
:10340000EB640260030234D77D0F90807EE0540F9E
:10341000F090807FE05453F0EDC39480400F908093
:103420007EE0F090807FE04408F00234C0EDC39469
:1034300040400DED9480500890807EE044608035DF
:10344000EDC39420400DED9440500890807EE04400
:10345000408022EDC39410400DED942050089080E0
:103460007EE04420800FEDC394084013ED9410508B
:103470000E90807EE0F090807FE04404F08041ED8B
:10348000C39404400DED9408500890807EE04440C1
:103490008028EDC39402400DED9404500890807E86
:1034A000E044208015EDC39401400BED94025006DA
:1034B00090807EE0800490807EE0F090807FE0F05D
:1034C00090A0B4A3A3A3E0908076F0908077E0F082
:1034D000908C80E04480F0E490A0AFF022908024B3
:1034E000E090A0ACF0E4908024F07F0C7EBB7D02E5
:1034F000FC7B017A8B7921128B0E908605E090A3DC
:1035000053F090871AE090A34EF090871DE090A3AF
:103510004FF0E4908605F090871A7420F090871D94
:103520007415F09088A6E090A0ADF0908737E090F9
:10353000A0AEF09087247440F0908737E04402F00A
:103540009088A6E04480F07B017A8879A0128BA550
:1035500090A0AFEEF0A3EFF012C9BB128BA590A024
:10356000B1EEF0A3EFF07B017A8879A07D017C00B9
:103570001257F112C9BB7D017C001257F1E490880B
:10358000A4F09088A5F07F02FE12C3EB9088A6E01D
:1035900030E01E90A0AB74FFF090A0ABE0FFD3949E
:1035A0007F402B12367A30E02590A0ABE014F080FB
:1035B000E8E490A0ABF090A0ABE0FFC39480500E85
:1035C00012367A20E00890A0ABE004F080E8908802
:1035D000A6E030E11E90A0AB74FFF090A0ABE0FF3E
:1035E000D3947F402B12368B30E12590A0ABE014B2
:1035F000F080E8E490A0ABF090A0ABE0FFC3948033
:10360000500E12368B20E10890A0ABE004F080E869
:103610009088A4E0647F6004E0B48005E49088A40E
:10362000F09088A5E0647F6004E0B48005E49088B1
:10363000A5F090A0ACE0908024F090A353E0908699
:1036400005F090A34EE090871AF090A34FE090878A
:103650001DF090A0AF12C9AF1257F112C9BB90A0D4
:10366000B1E0FCA3E0FD1257F190A0ADE09088A678
:10367000F090A0AEE0908737F0229088A4EFF07F22
:10368000027E0012C3EB9088A6E0229088A5EFF09E
:103690007F027E0012C3EB9088A6E02212D24F90E8
:1036A000A0BCEFF012D25590A0BDEFF012D25B900B
:1036B000A0BEEFF012D24F90A0B9EFF012D2559009
:1036C000A0BAEFF012D25B90A0BBEFF0E490A0B8EC
:1036D000F0E490A0B7F0128B5090A0BFEEF0A3EFF3
:1036E000F0908106746EF0122DA2129D1E5004D22D
:1036F00016801A908106E020E10890A0B77401F0CE
:10370000800B128B5090A0BF122D2740DA90A0B7EB
:10371000E07002D216301605123841C322E490A0A0
:10372000B7F0908113E090A0B9122D45FFE43EADB3
:1037300007122E5D500302383AEBC394F0500C9000
:10374000A0B9E0FF94084003122D7CEBD394F8401D
:103750001190A0B9E094F85009EB2408FFE02F1273
:103760002D83908114E090A0BA122D45122E5A504C
:103770000302383AEBC394F0500C90A0BAE0FF94E7
:10378000084003122D7CEBD394F8401190A0BAE0CE
:1037900094F85009EB2408FFE02F122D8390811537
:1037A000E0FB90A0BB122D46122E5A500302383A6D
:1037B000EBC394F0500C90A0BBE0FF9408400312C0
:1037C0002D7CEBD394F8401390A0BBE094F8500B01
:1037D000AF03EB2408FFE02F122D8390A0B7E07019
:1037E0003290A0B9E0FFC39408404FEFD394F85053
:1037F0004990A0BAE0FFC39408403FEFD394F8503B
:103800003990A0BBE0FFC39408402FEFD394F85049
:1038100029D32290A0B9E0FF12D22B90A0BAE0FFEA
:1038200012D23190A0BBE0FF12D23790A0B8E004D2
:10383000F0E0C3948050030236D1123841D216C34F
:103840002290A0BCE0FF12D22B90A0BDE0FF12D2CC
:103850003190A0BEE0FF12D2372212A58090A0BB0B
:10386000EFF064216008E0644160030239599087F9
:1038700034E020E10302393D908744E05460700356
:1038800002390390A37DE0707A9086B5E04404F09D
:1038900090811BE04420F0908020E030E26B908724
:1038A00045E054C064807B017A80794B7023908B13
:1038B000BF12C7951257F112C78B1257F112C7A842
:1038C000908BC312C7941257F112C7AF908BC5806B
:1038D00024908BB712C7941257F1908BB912C78EF0
:1038E0001257F112C7A8908BBB12C7941257F1124E
:1038F000C7AF908BBD12C7941257F19080537409D3
:10390000F0800B12C79C54DFF0E4908053F0908756
:1039100048E0540FFF908608E0540FFEEFB4010614
:10392000EE4450FE8008EFB40304EE44F0FEAF0610
:10393000908608EEF090871A7420F0801812C79CC9
:1039400054DFF0E4908053F0908608E0540FF0903C
:10395000871A7410F0E40239F290A0BBE0FF6451C2
:103960006008EF646160030239E712C79C4420F0ED
:103970009080537409F0E4908054F0908055F07B6F
:10398000017A807936128BA5C3EE94057B017A808B
:10399000794B4023908BBF12C7941257F112C78BFB
:1039A0001257F112C7A8908BC312C7941257F11285
:1039B000C7AF908BC5802A908BB712C7941257F16E
:1039C0007B017A80794D908BB912C7941257F1120E
:1039D000C7A8908BBB12C7941257F112C7AF908B38
:1039E000BD12C7940257F112C79C54DFF0E49080D7
:1039F00053F0908054F0908055F022E490A0BFF0F6
:103A0000A3F0A3F0FF12D23DE4FF12D243E4FF1271
:103A1000D249C2169081BB7480F09081BC7403F0CF
:103A2000908023E030E7079081BD74808004E490AB
:103A300081BDF09081BFF0122E6EE490A0B9F0A38A
:103A4000F0A3F0A3F0A3F0A3F0128B5090A0B7EE78
:103A5000F0A3EFF0122DA27F027E0012C3EB129DA5
:103A60001E5005D216023B5A12D26190A0BF123BE3
:103A700085400912D26190A0BF122E6C12D26790BD
:103A8000A0C0123B85400912D26790A0C0122E6CD4
:103A900012D26D90A0C1E0C39FFFE49400FE12001B
:103AA00016D3EF9403EE64809480400C12D26D9094
:103AB000A0C1EFF0A3740AF090A0C2E090A0BFB440
:103AC0000A20E090A0B9122EBA90A0C0E090A0BB4E
:103AD000122EBA90A0C1E0FF90A0BDE4F0A3EFF0D9
:103AE0008033E0FF90A0BAE02FF090A0B9E034005E
:103AF000F090A0C0E0FF90A0BCE02FF090A0BBE051
:103B00003400F090A0C1E0FF90A0BEE02FF090A0A4
:103B1000BDE03400F090A0C2E014F0702190A0B994
:103B2000122DD690A0BFEFF090A0BB122DD690A082
:103B3000C0EFF090A0BD122DD690A0C1EFF090A0E4
:103B4000C2E06016128B5090A0B7122DF8FEC3EFA2
:103B5000942CEE94015003023A54E49081BBF0900F
:103B600081BCF020161E90A0BFE02404FF12D23DBD
:103B700090A0C0E02404FF12D24390A0C1E024042E
:103B8000FF12D24922E0C39FFFE49400FE12001608
:103B9000D3EF9403EE6480948022122EA2128BA5A0
:103BA000EE540790A0C7122D3E7A807936128BA56D
:103BB000EE540F90A0C9122D3E7A80792E128BA55B
:103BC000EE540790A0CB122D3E7A807934128BA54B
:103BD000EE540F90A0CD122D3E7A81790C128BA558
:103BE000EE540790A0C5122D3E7A817910128BA554
:103BF000EE540F90A0C3122D3E7A817908128BA546
:103C0000EE540790A0C1122D3E7A81790E128BA539
:103C100090A0BF122E6490A0C7122DCF90A0C6E036
:103C20009F90A0C5E09E504512B84890A0C1122DAB
:103C300098503A90A0CB122EA9402390A0C6E090B5
:103C4000A0C5122E0490A0C7122D985020122E2E1F
:103C500090A0CCE02FF090A0CBE03EF0800F90A0A1
:103C6000C1E0FFA3E090A0CBCFF0A3EFF090A0C9FC
:103C7000122DCF90A0C4E09F90A0C3E09E504512AB
:103C8000D1EB90A0BF122D98503A90A0CD122EA942
:103C9000402390A0C4E090A0C3122E0490A0C912AB
:103CA0002D985020122E2E90A0CEE02FF090A0CD77
:103CB000E03EF0800F90A0BFE0FFA3E090A0CDCF4A
:103CC000F0A3EFF090A022E0FEA3E0FF90A0CD12C1
:103CD0002D985002800F90A024E0FEA3E0FFD3EDCA
:103CE0009FEC9E400890A0CDEEF0A3EFF090A0CD09
:103CF000E0FEA3E0FF12CF3490A0CBE0FEA3E0FFF4
:103D000012C62812D05990A013EEF0A3EFF012D0F3
:103D10006390A015EEF0A3EFF022122EA2128BA555
:103D200090A0B9122D3B7A807936128BA590A0BB5A
:103D3000122DF0128F58E4908106F090A0BD7430DF
:103D4000F090A0BDE0FFC394A05074908107EFF005
:103D5000E490A0BEF012C15F50427B017A81790CE1
:103D6000128BA590A0B3122D3B7A817910128BA5EE
:103D700090A0B1122DF0D390A0B4E0940090A0B325
:103D8000E094014013D390A0B2E0940090A0B1E081
:103D900094014004D2098006C2098002C32230097E
:103DA0000C90A0BEE004F0E0C3940540A890A0BE33
:103DB000E06405600A90A0BDE02410F0023D41904F
:103DC000A0BDE0D394A040012212C15F50457B0109
:103DD0007A81790C128BA5EE540790A0B7122D3E74
:103DE0007A817910128BA590A0B5122E6490A0B1A3
:103DF000122DCF90A0B6E090A0B5123E7C505E9000
:103E0000A0B3122DCF90A0B8E090A0B7123E7C4096
:103E100004804AC3227B017A81790E128BA5EE546D
:103E20000F90A0B1122D3E7A817908128BA5EE5425
:103E30000790A0B3F0A3EFF090A0B3E0FCA3E0FDE7
:103E4000122CEFA3E0FFA3E090A0C5CFF0A3EFF00A
:103E500090A0B1E0FEA3E0FF1297095007D217121D
:103E60003B9AC32290A0B1E0FEA3E0FF12CF3490B2
:103E7000A0B3E0FEA3E0FF12C628D3229FFFE09E7E
:103E8000FE120016D3EF9405EE648094802290A079
:103E9000B2EFF0A3ECF0A3EDF0A3EAF0A3EBF09007
:103EA000A0BA12566C0000000090A0B9E0646470E3
:103EB0005190A0B5E0FEA3E0FFC390A0B4E09FFF47
:103EC00090A0B3E09EFE90A0B2E0FD7C0012572EC1
:103ED000E47B64FAF9F8125553A804A905AA06ABC5
:103EE0000790A0B5E0FEA3E0FFE4FCFDEB2FFFEAA6
:103EF0003EFEED39FDEC3812BD1790A0BAA3A30227
:103F00003F9D90A0B2E0FF7464C39F50047F648023
:103F10000090A0B2EFF090A0B9E0FEEFD39E404138
:103F2000EEFF90A0B2E09FFFE49400FE90A0B7E007
:103F3000FCA3E0FDC390A0B4E09DFD90A0B3E09C85
:103F4000FC12BD0BC006C00790A0B9E0FFC37464AB
:103F50009FFFE49400AB07FAE4F9F8D007D006809D
:103F60003112BD29FEC39F503190A0B5E0FCA3E003
:103F7000FDC390A0B8E09DFD90A0B7E09CFCEEFFD3
:103F80007E0012BD0BC00790A0B9E0FBE4FAF9F87F
:103F9000D00712555312BD18800990A0B7E0FEA3B8
:103FA000E0FF2212BCEEFF125553AC00AD01AE0291
:103FB000AF03E47B05FAF9F8C3125609501112BC9D
:103FC000F4240AFFE43EFEE43DFDE43C12BD17127A
:103FD000BD29D39F12BCEEFF400E12555390A0B8DE
:103FE000E02FFF90A0B7800C12555390A0B6E02FA1
:103FF000FF90A0B5E03EFE22122E45128BA590A0A8
:10400000B8EEF0A3EFF0122E1790A0B4EEF0A3EFED
:10401000F0A3EEF0A3EFF090A0BA12566C000000EF
:104020000090A0C212566CFFFFFFFF90A0B9E024E1
:10403000FEF090A0B8E034FFF0E490A0B1F0122EB2
:1040400017129C6712490490A0BE125660301602E7
:10405000C322122CC390A0BA122CEAC312560950E4
:104060001590A0B8E0FFA3E090A0B4CFF0A3EFF0CC
:10407000122CC3122DB8122CC3A3122CEAD3125641
:10408000094016122CC3A312566090A0B8E0FFA3FB
:10409000E090A0B6CFF0A3EFF090A0B9E004F070EC
:1040A0000690A0B8E004F090A0B1E004F0E0C39462
:1040B00004408B90A0B4E0FEA3E0FF90A0B8EEF027
:1040C000A3EFF090A0B6122DF8FE120016EF6401D7
:1040D0004E600A90A0B8E0F0A3E054FEF0122E1754
:1040E000129C67122E1790A0B4E06E7003A3E06FCD
:1040F0006009124904122CBD122DB8122EB3128B76
:10410000A590A0B4EE122D3E7A807932128BA59044
:10411000A0B6EEF0A3EFF090A0B4E0FEA3E0FF1293
:104120002E5312572EE47B40FAF9F81254C8122C81
:10413000BD90A0BA122CEAC3125609500E90A0B23C
:10414000E02418122EC17420F0800C90A0B3E0245B
:10415000F8122EC17410F090A0B1E0FF12D225D356
:104160002290A0B0EFF090A33BF012D29050030247
:10417000427F12CC9B9081A7E090A0B2F0E49081A6
:10418000A7F07F0AFE12C3EB90A0B2E09081A7F0E7
:1041900090A0B0E012570241B91141C41241D013AE
:1041A00041D92141F03141FC3242083342104142B1
:1041B0001F51422A610000423312C91DE490A0B190
:1041C000F002423312C91D90A0B17401F0024233D3
:1041D0001242807402F00242339081997443F0904D
:1041E000871A7420F0740212C92A7403F002423351
:1041F00012C91D90A0B17404F002423312C91D907F
:10420000A0B17405F00242331242807406F080239C
:10421000744312C91F740312C92A7407F080141260
:10422000C91D1242A57408F0800912C91D1242A5C9
:104230007409F07F0EE4FEEEC39F503CEE75F00370
:10424000A424BEF582E4347FF583E493FB740193E8
:10425000FA740293F990A0B1E075F00EA424E8F589
:1042600082E4347FF583E5822EF582E43583F5839D
:10427000E49312531C0E80BF7F507E0012C3EB22CA
:104280009081997442F090871A7410F0908021E028
:104290004440F07F027E0012C3EB908021E054BFC7
:1042A000F090A0B122908021E04440F07F027E0097
:1042B00012C3EB908021E054BFF090A0B122121CF9
:1042C00048128BA590A0C1EE121C0930E21490A0F8
:1042D000C1E0FEA3E0FFEE121B5F90A0C1EEF0A3D1
:1042E000EFF0121C6B128BA5AB07AA0690A0C112AF
:1042F0001AA49BEC9A908190E040054420F0800342
:1043000054DFF0AE02AF03D3ED9BEC9A50119080D6
:1043100020E020E20A908150E030E5030244119051
:1043200080F5E090A0BFF09080F5E054FEF090A3FF
:104330003E1219677F407E9CFD1218DC12C3EB7B96
:10434000017A81797712BDD790A0C5EEF0A3EFF086
:1043500090A0C5121A33C4540F90A0C0F0EC540FB3
:10436000AF0590A0C3F0A3EFF0121BB412BDD7901D
:10437000A0C5EEF0A3EFF090A0C0E0FF7E0090A0FB
:10438000C5E0FCA3E0FD12535090A0C4E02FF090D4
:10439000A0C3E03EF0A3E02480F090A0C3E034018D
:1043A000F0908020E030E226121BB412BDD7EEC39D
:1043B00013FEEF13FF90A0C1EEF0A3EFF0A3E0FE19
:1043C000A3E0FF90A0C1121BE5A3F0A3EFF090A023
:1043D000C5E0FAA3E0FB121B2690A0C0EFF0121B71
:1043E0002690A0C3ECF0A3EDF090A0C0E090815126
:1043F000F07B017A81795290A0C3E0FCA3E0FD122A
:1044000057F190A0BFE09080F5F0908150E054BF4C
:10441000F022748B129EEB7480F07489129F1790B7
:1044200081EAE04440F090800A7488F090F0A8742B
:104430007FF0740FF07F147E0012C3EBE490F0A8BD
:10444000F09081EAE054BFF090800A7401F090800F
:10445000127481129ED990A33BE0FF64116005EFB6
:104460006412706E90F0A9E0D3940A500890F0AAFC
:10447000E09400405D90F0A8748FF07F147E0012ED
:10448000C3EB90A33BE0B4111590F0ADE0D39400E2
:10449000400CE0940A500712C6DD7F11802790A3DC
:1044A0003BE06412702C908B57748BF012D0047424
:1044B00010124540FFBF201212B848129ECE400A8B
:1044C00012C6DD7F12124161D32212D00FE4908B0D
:1044D00057F090A33BE0FF64136005EF6451705EFA
:1044E00090F0ABE0D3940A500890F0ACE094004018
:1044F0004D748B129F1790800AE04408F0741812D4
:10450000454064207029124B58502412B848129E1E
:10451000CE401C12C6DD90A33BE0B413047F138091
:104520000990A33BE0B451057F51124161D3229021
:1045300080127481F090800AE054F7129ED9C32251
:10454000908000F09081967461F07F327E0012C3FB
:10455000EB90819AE054E022201D0302468EC21D9A
:1045600090A376E0D3940540037405F090A376E021
:10457000FF700A7418129F5EF0A3F08061EFB4011F
:10458000097408129F5E74188050EFB402097420F9
:10459000129F8274088043EFB403097410129F8243
:1045A00074208036EFB404097428129F927410802E
:1045B00029EFB405097430129F927428801CEFB45F
:1045C000060E90A0AC7438F0A3E4F0A37430800A17
:1045D000E490A0ACF0A3F0A37438F0A3E4F0EFB43F
:1045E0000507E490A0ACF0A3F0129F8B90A0ACE084
:1045F000FEA3E0FF12C20A90A0ACE0540FFEA3E0BD
:104600004E700812468FE4FD128253E490A0B0F081
:10461000A3F0C390A0B0E09408503012468F90A051
:10462000B0E0FCA3E0FD2FFFEC3EFEE42DFDEC34FA
:10463000A8FCE490A0B7F0FB1276B290A0B1E02401
:1046400000F090A0B0E03401F080C7128B6F90A012
:10465000ADE090A0AC129FDB7D55127EFF90A0AE26
:10466000E0FEA3E0FF12C20A128B6F90A0AFE090B1
:10467000A0AE129FDBFD127EFF90A376E0FF04F058
:10468000EFC394054002E4F012C44F129F8B221234
:104690008B6F90A0ACE0FEA3E0FF2290A35EE064ED
:1046A00007600312B6D890A35EE024FE6043147046
:1046B000030247321470030247C514700302477C9B
:1046C0001470030247CD240560030247D090A2F77F
:1046D000E0FF24FB6018146007240560030247D044
:1046E00012C7D6EFF0128B5012C7C202CB7002A8CD
:1046F0007312C7CB600302479690A2F7E024FA70CA
:10470000030247D0240424FA50030247D0128B50EE
:1047100090A35BE0FCA3E0FDC3EF9DFFEE9CFED306
:10472000EF9464EE940050030247D090A35E7403AC
:10473000F02290A35AE030E0030247D012BE6B9003
:10474000A2F7E014602824FB5008602214602602BF
:1047500047D012205412B8FA5002800A12AFEA5021
:104760000512C123800F90A2F77407F0800774022E
:1047700012C7B6803690A35E7405F02290A2F7E0CF
:10478000FF24FE24FD5012601514600714602F24CE
:1047900006703D12C7D6EF801290A35E801512A856
:1047A0007312D28490A35E500A7402F0128B5012DE
:1047B000C7C2227401F0E4FF12B06102C98B90A35A
:1047C0005E7401F02212C7CB600602CEA912CE9A07
:1047D0002290A035E0FEA3E0FF7C007D3C12572E26
:1047E00090A034129F67129FCD125553129F9BE4E5
:1047F00090A0AFF0A3F090A0AF129FD494FFEE94DE
:104800000F5026E42FFFEE3430FE7B017AA079B101
:104810001288ED90A0B1E0701090A0B0E004F070AC
:10482000D590A0AFE004F080CD90A0AB129FB9C0AE
:1048300000C001C002C003A3E0FEA3E07803C333BD
:10484000CE33CED8F9FFE4FCFDD003D002D001D0A6
:1048500000EB2FFFEA3E129F7A129F9B90A0B1E0DF
:10486000FBB4FE0B90A0AB129F4224010248CCEB9C
:10487000B4FC0A90A0AB129F422402804F90A0B1DA
:10488000E0FBB4F80A90A0AB129F422403803DEBFA
:10489000B4F00A90A0AB129F422404802F90A0B1E4
:1048A000E0FBB4E00A90A0AB129F422405801DEB10
:1048B000B4C00A90A0AB129F422406800F90A0B112
:1048C000E0B4801590A0AB129F422407FFE43EFEA7
:1048D000E43DFDE43CFC129F9B90A0AB129F421272
:1048E0009FCC1254C8129F9B129F39FF12555390B0
:1048F000A032EEF0A3EFF0129F39FF12555390A0B3
:1049000031EBF02290A0CE12566C0000000090A077
:10491000CA12566CFFFFFFFFE490A0D4F0FF12D242
:1049200025122E4C90A0D47404F090A0D4E0C3942F
:10493000424003024A19122E205007E0FF04F012F1
:104940005885C209128B5090A0D2EEF0A3EFF0125E
:104950002DA2129D1E50028019908106E020E104D4
:10496000D209800B128B5090A0D2122D2740E0204C
:104970000908D216E4FFFEFDFC2290A0D4E0FF124D
:10498000D225122E4C7B017A817915128BA590A02D
:10499000C6122ECB90A0C6122CC67810125641908B
:1049A000A0C612566090A0C6122CEAC000C001C07A
:1049B00002C0037B017A817913128BA5E4FCFDD040
:1049C00003D002D001D00090A0C6122DA990A0CA99
:1049D000122CC690A0C6122CEAC3125609500E9093
:1049E000A0C6122CC6A3122E7590A36EF090A0CE76
:1049F000122CC690A0C6122CEAD312560940109071
:104A0000A0C6122CC690A0CE122E7590A371F09065
:104A1000A0D4E02404F002492A90A0CA122CEA1281
:104A20002E53A3E0FEA3E0C390A0C6122DE290A0F7
:104A3000C6122CC622122EB3128BA590A0B2EEF095
:104A4000EF122E8125E0FEEC33A3F0A3CEF07B0124
:104A50007A8179171257F1122E45128BA590A0B6C4
:104A6000EEF0A3EFF0122E3C90A0BAEEF0EF122E73
:104A700081D3EF9DEE9C5011ED2410FFE43CFE909D
:104A8000A0B6F0A3EFF0129C67E490A0B1F0128FF3
:104A90005812C15F4003024B287B017A81791012C2
:104AA0008BA5EE540F90A0B8F0A3EFF0908119E021
:104AB000FF54C0C413135403FEEF543FFFEE607C59
:104AC000EEB40126EFFD90A0B7E02DF090A0B6E087
:104AD0003400F090A0B4E0FCA3E0FDD390A0B7E0D8
:104AE0009D90A0B6E09C4002802EEED39401402021
:104AF00090A0B7E09FFF90A0B6E09400FEF0A3EF77
:104B0000F0D390A0B3E09F90A0B2E09E4002800856
:104B1000122E3C12C883500890A0B174FFF0801C84
:104B2000122E3C129C678005124B4CC32290A0B100
:104B3000E004F0E0C394205003024A8E90A0B1E05C
:104B4000B4FF07124B4CD217C322D32290A0BAE075
:104B5000FEA3E0FF129C67229081B2129EA1129EDA
:104B6000E0D3940FEE94005004EF4E7002C3221273
:104B70009E9E129F22128BA590A0B0EE129EFF78EF
:104B800003CEC313CE13D8F9FF7C007D0612536207
:104B9000D390A0AFE09F90A0AEE09E400122129F74
:104BA00022128BA5EE129EA4129EE0C39480EE9476
:104BB000024006BE1F05BFFF02C3227B017A817936
:104BC0009D128BA590A0AEEEF0A3EFF0129EE0C375
:104BD000EE94024006BE1F05BFFF02C322129E9E36
:104BE0007B017A8179B5128BA5EF2401FFE43E9019
:104BF000A0B0129EFFFFC394C8EE94005002C322DF
:104C0000C3EF947CEE9401500C90A0AFE0943C1262
:104C10009F32402922C390A0B1E094DA90A0B0E086
:104C20009402500C90A0AFE09432129F32400E22BA
:104C3000D390A0AFE0941E129F32400122D32202F3
:104C4000B22A024FF7E86480F8E933E833601104D0
:104C500060F0ED33EC337009E8FCE9FDEAFEEBFFB0
:104C6000220460DED3EB9FEA9EE99DE8C2E78CF068
:104C7000C2F795F0400CE8CCF8E9CDF9EACEFAEBB2
:104C8000CFFB124FC285D0F05804700320D5B3E893
:104C90000470075002B2D502500192D5EC0460F7BF
:104CA000E4CCC0E0C398F8603B94186008400DD095
:104CB000E0FB024FD9E4FBFAC9FC8028E830E406A7
:104CC000E4C9FBE4CAFCE830E305E4C9CACBFCE86C
:104CD00054076010F8C3E913F9EA13FAEB13FBEC7D
:104CE00013FCD8F130F52FC3E49CFCEF9BFFEE9A48
:104CF000FEED99FDD0E0FBEF4E4D4C701222DB0330
:104D0000024FFEEC2CFCEF33FFEE33FEED33FDEDF6
:104D100030E7EB024FD9EF2BFFEE3AFEED39FDD035
:104D2000E0FB50130BBB0003025001ED13FDEE132B
:104D3000FEEF13FFEC13FC024FD9EC4D6011E84974
:104D40007017ED33EC3304600DE4FCFFFEFD22E947
:104D500033E8330470F8024FF7124FC25804600969
:104D6000E4CC248150062850090250012840030257
:104D70004FFEC0E0EB4A7044B98006D0E0FB024F22
:104D8000EDEF4E701CBD8008EBFFEAFEE9FD80EB05
:104D9000E98DF0A4FEE5F0024E23E9CDF9EAFEEB41
:104DA000FFEF89F0A4FCE5F0CE89F0A42EFFE435F6
:104DB000F0CD89F0A42DFEE435F08067EF4E70054C
:104DC000BD80D780C3EF8BF0A4ACF0EE8BF0A42CA9
:104DD000FCE435F0F8EF8AF0A42CE5F038FCE4337D
:104DE000CB8DF0A42CFCE5F03BF8EE8AF0A42CFC73
:104DF000E5F038F8E433CF89F0A42CFCE5F038CFA7
:104E00003400CE89F0A42FFFE5F03EFEE433C98DD7
:104E1000F0A42EFEE5F039CD8AF0A42FFFE5F03E98
:104E2000FEE43DFD33D0E0FB50070BBB000F02500A
:104E300001EC2CFCEF33FFEE33FEED33FD024FD9D6
:104E4000025001EC5D046005E859047003024FF75D
:104E5000124FC2580460F6EC4860F2EC7004FDFE9C
:104E6000FF22C860DB2481C85009C3986002500645
:104E7000024FFE9850CAF582E9294B4A7005AB8271
:104E8000024FED75F0007C1A7880C3EF9BEE9AED2F
:104E900099400DC3EF9BFFEE9AFEED99FDE842F0BD
:104EA000DC23ACF0D0E0FFD0E0FED0E0FDAB822010
:104EB000E7101BEB60BAEC2CFCEF33FFEE33FEED9A
:104EC00033FD024FD9E803F830E705C0F075F00074
:104ED000EF2FFFEE33FEED33FD40B830E7C280AA7E
:104EE00074F8CC6480CCC86480C8F582046043C385
:104EF000EB9FF5F0EA9E42F0E99D42F0E89C45F018
:104F000060305018E5825FFFE582F42B5582FB503C
:104F1000210ABA001D09B90019088016E5825BFB59
:104F2000E582F42F5582FF50090EBE00050DBD002D
:104F3000010CC3EB9FF5F0EA9E42F0E99D42F0E8D8
:104F40009C45F06007CC4820E701B3EC2275F020C7
:104F5000800E75F010800575F0087D007E007F00E2
:104F60003392D530D5031255E5EC334010EF33FFC3
:104F7000EE33FEED33FDEC33FCD5F0ED22E5F0240D
:104F80007EA2D513CC92E7CDCEFF22EDD2E7CD3372
:104F9000EC3392D524814006E4FFFEFDFC22FCE4C4
:104FA000CFCECDCC24E0501174FF80EDC3CC13CC18
:104FB000CD13CDCE13CECF13CF0470F030D5DE029B
:104FC00055E5E9D2E7C933E833F892D5EDD2E7CD1C
:104FD00033EC33FC5002B2D522EC30E7100FBF00A7
:104FE0000C0EBE00080DBD00040BEB6014A2D5EB47
:104FF00013FCED92E7FD2274FFFCFDFEFF22E4802E
:10500000F8A2D574FF13FC7D80E480EFF920E73629
:1050100024F950037907E4F42402FBE58215827039
:10502000021583DBF6E024FB501BE96014E4F0E595
:1050300082158270021583E004F0B40A08E4F0D906
:10504000EE7401F00A22C2D522ED33EC3392D5FA88
:10505000602AB4FF33EDC2E77BFF60067A50796EB9
:10506000E4227A50797720D5047A507972224E6101
:105070004E002B494E46002D494E4600E47A08F07A
:10508000A3DAFC7B00740722C083C082ECC0E0ED91
:10509000C0E0EEC0E0EFC0E0EA75F010A4CAABF0EB
:1050A00075F04DA42BFBE435F0FCEA2410FAEB3448
:1050B000C5FBEC34D9FCEDC2E7FF75F056A4F4242F
:1050C00011C5F0F434C58FF0A42AE5F03BE43CF0C0
:1050D00020E71412517ED0E0FFD0E0FED0E0FDD0FA
:1050E000E0FC124E438014F40412517ED0E0FFD055
:1050F000E0FED0E0FDD0E0FC124D3AD082D083E05B
:10510000FAEDD2E7CD33EC332482FBE4C3CF33CFC7
:10511000CE33CECD33CD33DBF37B0775F00A84601D
:1051200004F0A31B0AE5F0F0A38FF0740AA4FFAC0F
:10513000F08EF0740AA42CFEACF050010C8DF074CB
:105140000AA42CFDE435F0F0A3DBDE7407223F80D7
:1051500000004120000042C80000447A0000461CC4
:10516000400047C35000497424004B1896804CBE41
:10517000BC205A0E1BCA6753C21C749DC5AEFB608F
:10518000065407601C23231251ACEB5438600912FB
:1051900051981251A7124D3AECF8EDF9EEFAEFCB17
:1051A00022EB1251A780F1543803241C90514EFE7B
:1051B00093FC0EEE93FD0EEE930ECE93FF22E709C5
:1051C000F608DFFA8046E709F208DFFA803E8882B7
:1051D0008C83E709F0A3DFFA8032E309F608DFFAEF
:1051E0008078E309F208DFFA807088828C83E30913
:1051F000F0A3DFFA806489828A83E0A3F608DFFAED
:10520000805889828A83E0A3F208DFFA804C80D23A
:1052100080FA80C680D4806980F28033801080A6B6
:1052200080EA809A80A880DA80E280CA803389820E
:105230008A83ECFAE493A3C8C582C8CCC583CCF0BA
:10524000A3C8C582C8CCC583CCDFE9DEE7800D8961
:10525000828A83E493A3F608DFF9ECFAA9F0EDFB68
:105260002289828A83ECFAE0A3C8C582C8CCC583B0
:10527000CCF0A3C8C582C8CCC583CCDFEADEE88009
:10528000DB89828A83E493A3F208DFF980CC88F07B
:10529000EF60010E4E60C388F0ED2402B4040050AC
:1052A000B9F582EB2402B4040050AF2323458223D6
:1052B00090520E73BB010689828A83E0225002E776
:1052C00022BBFE02E32289828A83E49322BB010C83
:1052D000E58229F582E5833AF583E0225006E92547
:1052E00082F8E622BBFE06E92582F8E222E5822961
:1052F000F582E5833AF583E49322BB010989828A2A
:1053000083F8E028F022500327F722BBFE05F8E3DC
:1053100028F3228A838982F8E4932822BB01068934
:10532000828A83F0225002F722BBFE01F322F8BBEF
:10533000010DE58229F582E5833AF583E8F02250F4
:1053400006E92582C8F622BBFE05E92582C8F222BD
:10535000EF8DF0A4A8F0CF8CF0A428CE8DF0A42E71
:10536000FE22BC000BBE0029EF8DF084FFADF022C1
:10537000E4CCF875F008EF2FFFEE33FEEC33FCEED3
:105380009DEC984005FCEE9DFE0FD5F0E9E4CEFDC6
:1053900022EDF8F5F0EE8420D21CFEADF075F00899
:1053A000EF2FFFED33FD4007985006D5F0F222C3F2
:1053B00098FD0FD5F0EA22C2D5EC30E709B2D5E46A
:1053C000C39DFDE49CFCEE30E715B2D5E4C39FFF1E
:1053D000E49EFE125362C3E49DFDE49CFC80031234
:1053E000536230D507C3E49FFFE49EFE22C5F0F868
:1053F000A3E028F0C5F0F8E582158270021583E07D
:1054000038F022A3F8E0C5F025F0F0E582158270AF
:10541000021583E0C838F0E822BB010A89828A833A
:10542000E0F5F0A3E022500687F009E71922BBFE61
:1054300007E3F5F009E3192289828A83E493F5F002
:1054400074019322BB0110E58229F582E5833AF5C8
:1054500083E0F5F0A3E0225009E92582F886F00800
:10546000E622BBFE0AE92582F8E2F5F008E222E531
:10547000832AF583E993F5F0A3E99322BB010A8916
:10548000828A83F0E5F0A3F0225006F709A7F0190D
:1054900022BBFE06F3E5F009F31922F8BB0111E582
:1054A0008229F582E5833AF583E8F0E5F0A3F0225E
:1054B0005009E92582C8F608A6F022BBFE09E925B5
:1054C00082C8F2E5F008F222E88FF0A4CC8BF0A4B9
:1054D0002CFCE98EF0A42CFC8AF0EDA42CFCEA8EC6
:1054E000F0A4CDA8F08BF0A42DCC3825F0FDE98FE9
:1054F000F0A42CCD35F0FCEB8EF0A4FEA9F0EB8FE0
:10550000F0A4CFC5F02ECD39FEE43CFCEAA42DCEAC
:1055100035F0FDE43CFC2275F008758200EF2FFFAA
:10552000EE33FECD33CDCC33CCC58233C5829BED7B
:105530009AEC99E58298400CF582EE9BFEED9AFD7F
:10554000EC99FC0FD5F0D6E4CEFBE4CDFAE4CCF92F
:10555000A88222B800C1B90059BA002DEC8BF084A2
:10556000CFCECDFCE5F0CBF97818EF2FFFEE33FE70
:10557000ED33FDEC33FCEB33FB10D703994004EB28
:1055800099FB0FD8E5E4F9FA227818EF2FFFEE33F4
:10559000FEED33FDEC33FCC933C910D7059BE99A06
:1055A0004007EC9BFCE99AF90FD8E0E4C9FAE4CC97
:1055B000FB2275F010EF2FFFEE33FEED33FDCC3301
:1055C000CCC833C810D7079BEC9AE899400AED9BEA
:1055D000FDEC9AFCE899F80FD5F0DAE4CDFBE4CCC9
:1055E000FAE4C8F922C3E49FFFE49EFEE49DFDE4D3
:1055F0009CFC22EB9FF5F0EA9E42F0E99D42F0EC24
:105600006480C864809845F022EB9FF5F0EA9E42E2
:10561000F0E99D42F0E89C45F022E8600FECC313EE
:10562000FCED13FDEE13FEEF13FFD8F122E860103E
:10563000ECA2E713FCED13FDEE13FEEF13FFD8F021
:1056400022E8600FEFC333FFEE33FEED33FDEC33A2
:10565000FCD8F122E0FCA3E0FDA3E0FEA3E0FF22E2
:10566000ECF0A3EDF0A3EEF0A3EFF022A882858387
:10567000F0D083D08212568312568312568312566C
:1056800083E473E493A3C583C5F0C583C8C582C80A
:10569000F0A3C583C5F0C583C8C582C822A42582EE
:1056A000F582E5F03583F58322E0FBA3E0FAA3E081
:1056B000F922F8E0FBA3A3E0F925F0F0E5821582DA
:1056C00070021583E0FA38F022EBF0A3EAF0A3E9C8
:1056D000F022BB010DE58229F582E5833AF58302CC
:1056E00056A95007E92582F802575BBBFE07E9255A
:1056F00082F8025764E58229F582E5833AF5830250
:10570000576DD083D082F8E4937012740193700DBA
:10571000A3A393F8740193F5828883E473740293CE
:105720006860EFA3A3A380DF8A838982E473EC8E91
:10573000F0A4CCC5F0CCCDF8EFA4CEC5F02DFDE49F
:105740003CFCE8A42EC8C5F03DFDE43CFCEFA4FF02
:10575000E5F028FEE43DFDE43CFC22E6FB08E6FA29
:1057600008E6F922E2FB08E2FA08E2F922E493FBF8
:10577000740193FA740293F92290A0BFEFF0A2AFE4
:10578000E433A3F0C2AF90A0BFE0701690A32FE067
:10579000B4260F90A32DE07002A3E0604B128AE8BC
:1057A000804690F067E090A0C1F090F068E090A093
:1057B000C2F0126EE5BF20057450F080037406F04D
:1057C00090F075E0FD90A0BFE0FF7E001288B2AFC0
:1057D00005ED54FE90F075F090A0C1E090F067F0F8
:1057E00090A0C2E090F068F090A0C0E024FF92AFDB
:1057F00022ED12531C740129F9E43AFAEC02531C0D
:10580000E5905403C403C0E0748CC0E0C082C08340
:10581000028C00E5905403C403C0E0748CC0E0C067
:1058200082C083028C08E5905403C403C0E0748CEA
:10583000C0E0C082C083028C10E5905403C403C052
:10584000E0748CC0E0C082C083028C18EFC4039067
:105850008C007390BF35010090C3B8010090BF75F4
:10586000010090BB57010090A99C010090304601B7
:1058700026900C63013990469B01009043DD012680
:1058800090D17D0100908BFD011390D53E011390C6
:10589000E3BD01139049FB012690BAAC010090D200
:1058A0000D01009042D8012690D207010090402EB1
:1058B0000126903FF10126903EE5012690496201C4
:1058C0002690CFC2010090DA46011390D810011340
:1058D00090DA82011390E21B011390DDB101139065
:1058E000E260011390DA64011390DBD8011390E0B9
:1058F0005B011390E067011390E073011390E07F68
:10590000011390E393011390E143011390E26801C6
:105910001390D89C011390DB32011390E14C0113DA
:1059200090E155011390E15E011390E27001139034
:10593000DB4E011390DA08011390E167011390E147
:1059400070011390E179011390DF1C011390E18243
:10595000011390E278011390DB86011390DB6A015A
:105960001390E18B011390E194011390E19D0113D9
:1059700090E1A6011390E280011390D702011390E9
:10598000D5FF011390E1AF011390E1B8011390E14D
:10599000C1011390E1CA011390E1D3011390E09685
:1059A000011390D77B011390D6AE011390E1DC0177
:1059B0001390E1E5011390E1EE011390E1F701137B
:1059C00090E200011390E0A1011390DC29011390F3
:1059D000D901011390E0AC011390DC42011390D97E
:1059E00022011390DF58011390DDF0011390DE03C4
:1059F000011390E0B7011390DABE011390D8330180
:105A00001390E0C2011390D62B011390D6570113C7
:105A100090DF66011390CFA4011390D4D8011390A6
:105A2000DF74011390D50B011390CFEA011390DFBF
:105A300082011390E0CD011390D856011390DADB68
:105A4000011390E0D8011390DC5B011390D943015E
:105A50001390DF90011390DC74011390D96401134B
:105A600090DF9E011390DC8D011390D98501139076
:105A7000E0E3011390DCA6011390D9A6011390E096
:105A8000EE011390DCBF011390D9C7011390DFAC76
:105A9000011390DAF8011390D879011390DFBA015D
:105AA0001390DB15011390D7EC011390DFC801139D
:105AB00090E00D011390E01A011390E0F9011390AA
:105AC000DE86011390DECC011390E104011390DF18
:105AD0003A011390DF49011390E034011390DFD6AF
